{
  "_format": "hh-sol-artifact-1",
  "contractName": "CrowdFunding",
  "sourceName": "contracts/CrowdFunding.sol",
  "abi": [
    {
      "anonymous": false,
      "inputs": [
        {
          "indexed": true,
          "internalType": "uint256",
          "name": "campaignId",
          "type": "uint256"
        }
      ],
      "name": "CampaignCancelled",
      "type": "event"
    },
    {
      "anonymous": false,
      "inputs": [
        {
          "indexed": true,
          "internalType": "uint256",
          "name": "campaignId",
          "type": "uint256"
        },
        {
          "indexed": true,
          "internalType": "address",
          "name": "owner",
          "type": "address"
        },
        {
          "indexed": false,
          "internalType": "uint256",
          "name": "target",
          "type": "uint256"
        },
        {
          "indexed": false,
          "internalType": "uint256",
          "name": "deadline",
          "type": "uint256"
        }
      ],
      "name": "CampaignCreated",
      "type": "event"
    },
    {
      "anonymous": false,
      "inputs": [
        {
          "indexed": true,
          "internalType": "uint256",
          "name": "campaignId",
          "type": "uint256"
        },
        {
          "indexed": false,
          "internalType": "enum CrowdFunding.CampaignStatus",
          "name": "status",
          "type": "uint8"
        }
      ],
      "name": "CampaignFinalized",
      "type": "event"
    },
    {
      "anonymous": false,
      "inputs": [
        {
          "indexed": true,
          "internalType": "uint256",
          "name": "campaignId",
          "type": "uint256"
        },
        {
          "indexed": true,
          "internalType": "address",
          "name": "donor",
          "type": "address"
        },
        {
          "indexed": false,
          "internalType": "uint256",
          "name": "amount",
          "type": "uint256"
        }
      ],
      "name": "DonationReceived",
      "type": "event"
    },
    {
      "anonymous": false,
      "inputs": [
        {
          "indexed": true,
          "internalType": "uint256",
          "name": "campaignId",
          "type": "uint256"
        },
        {
          "indexed": true,
          "internalType": "uint256",
          "name": "milestoneId",
          "type": "uint256"
        }
      ],
      "name": "MilestoneApproved",
      "type": "event"
    },
    {
      "anonymous": false,
      "inputs": [
        {
          "indexed": true,
          "internalType": "uint256",
          "name": "campaignId",
          "type": "uint256"
        },
        {
          "indexed": true,
          "internalType": "uint256",
          "name": "milestoneId",
          "type": "uint256"
        },
        {
          "indexed": false,
          "internalType": "uint256",
          "name": "amount",
          "type": "uint256"
        }
      ],
      "name": "MilestonePaid",
      "type": "event"
    },
    {
      "anonymous": false,
      "inputs": [
        {
          "indexed": true,
          "internalType": "uint256",
          "name": "campaignId",
          "type": "uint256"
        },
        {
          "indexed": true,
          "internalType": "uint256",
          "name": "milestoneId",
          "type": "uint256"
        },
        {
          "indexed": true,
          "internalType": "address",
          "name": "voter",
          "type": "address"
        },
        {
          "indexed": false,
          "internalType": "bool",
          "name": "support",
          "type": "bool"
        },
        {
          "indexed": false,
          "internalType": "uint256",
          "name": "weight",
          "type": "uint256"
        }
      ],
      "name": "MilestoneVoted",
      "type": "event"
    },
    {
      "anonymous": false,
      "inputs": [
        {
          "indexed": true,
          "internalType": "uint256",
          "name": "campaignId",
          "type": "uint256"
        },
        {
          "indexed": true,
          "internalType": "uint256",
          "name": "milestoneId",
          "type": "uint256"
        },
        {
          "indexed": false,
          "internalType": "string",
          "name": "ipfsHash",
          "type": "string"
        },
        {
          "indexed": false,
          "internalType": "uint256",
          "name": "newVotingRound",
          "type": "uint256"
        }
      ],
      "name": "ProofResubmitted",
      "type": "event"
    },
    {
      "anonymous": false,
      "inputs": [
        {
          "indexed": true,
          "internalType": "uint256",
          "name": "campaignId",
          "type": "uint256"
        },
        {
          "indexed": true,
          "internalType": "uint256",
          "name": "milestoneId",
          "type": "uint256"
        },
        {
          "indexed": false,
          "internalType": "string",
          "name": "ipfsHash",
          "type": "string"
        }
      ],
      "name": "ProofSubmitted",
      "type": "event"
    },
    {
      "anonymous": false,
      "inputs": [
        {
          "indexed": true,
          "internalType": "uint256",
          "name": "campaignId",
          "type": "uint256"
        },
        {
          "indexed": true,
          "internalType": "address",
          "name": "donor",
          "type": "address"
        },
        {
          "indexed": false,
          "internalType": "uint256",
          "name": "amount",
          "type": "uint256"
        }
      ],
      "name": "Refunded",
      "type": "event"
    },
    {
      "inputs": [],
      "name": "VOTING_WINDOW",
      "outputs": [
        {
          "internalType": "uint256",
          "name": "",
          "type": "uint256"
        }
      ],
      "stateMutability": "view",
      "type": "function"
    },
    {
      "inputs": [
        {
          "internalType": "uint256",
          "name": "",
          "type": "uint256"
        }
      ],
      "name": "campaigns",
      "outputs": [
        {
          "internalType": "address",
          "name": "owner",
          "type": "address"
        },
        {
          "internalType": "string",
          "name": "title",
          "type": "string"
        },
        {
          "internalType": "string",
          "name": "description",
          "type": "string"
        },
        {
          "internalType": "uint256",
          "name": "target",
          "type": "uint256"
        },
        {
          "internalType": "uint256",
          "name": "deadline",
          "type": "uint256"
        },
        {
          "internalType": "uint256",
          "name": "amountCollected",
          "type": "uint256"
        },
        {
          "internalType": "uint256",
          "name": "nextMilestoneToPay",
          "type": "uint256"
        },
        {
          "internalType": "enum CrowdFunding.CampaignStatus",
          "name": "status",
          "type": "uint8"
        }
      ],
      "stateMutability": "view",
      "type": "function"
    },
    {
      "inputs": [
        {
          "internalType": "uint256",
          "name": "_campaignId",
          "type": "uint256"
        }
      ],
      "name": "cancelCampaign",
      "outputs": [],
      "stateMutability": "nonpayable",
      "type": "function"
    },
    {
      "inputs": [
        {
          "internalType": "uint256",
          "name": "",
          "type": "uint256"
        },
        {
          "internalType": "address",
          "name": "",
          "type": "address"
        }
      ],
      "name": "contributionOf",
      "outputs": [
        {
          "internalType": "uint256",
          "name": "",
          "type": "uint256"
        }
      ],
      "stateMutability": "view",
      "type": "function"
    },
    {
      "inputs": [
        {
          "internalType": "string",
          "name": "_title",
          "type": "string"
        },
        {
          "internalType": "string",
          "name": "_description",
          "type": "string"
        },
        {
          "internalType": "uint256",
          "name": "_target",
          "type": "uint256"
        },
        {
          "internalType": "uint256",
          "name": "_deadline",
          "type": "uint256"
        },
        {
          "internalType": "string[]",
          "name": "_milestoneDescriptions",
          "type": "string[]"
        },
        {
          "internalType": "uint256[]",
          "name": "_milestoneAmounts",
          "type": "uint256[]"
        }
      ],
      "name": "createCampaign",
      "outputs": [
        {
          "internalType": "uint256",
          "name": "",
          "type": "uint256"
        }
      ],
      "stateMutability": "nonpayable",
      "type": "function"
    },
    {
      "inputs": [
        {
          "internalType": "uint256",
          "name": "_campaignId",
          "type": "uint256"
        }
      ],
      "name": "donateToCampaign",
      "outputs": [],
      "stateMutability": "payable",
      "type": "function"
    },
    {
      "inputs": [
        {
          "internalType": "uint256",
          "name": "_campaignId",
          "type": "uint256"
        }
      ],
      "name": "finalizeCampaign",
      "outputs": [],
      "stateMutability": "nonpayable",
      "type": "function"
    },
    {
      "inputs": [
        {
          "internalType": "uint256",
          "name": "_campaignId",
          "type": "uint256"
        }
      ],
      "name": "getCampaignBalance",
      "outputs": [
        {
          "internalType": "uint256",
          "name": "",
          "type": "uint256"
        }
      ],
      "stateMutability": "view",
      "type": "function"
    },
    {
      "inputs": [],
      "name": "getContractBalance",
      "outputs": [
        {
          "internalType": "uint256",
          "name": "",
          "type": "uint256"
        }
      ],
      "stateMutability": "view",
      "type": "function"
    },
    {
      "inputs": [
        {
          "internalType": "uint256",
          "name": "_campaignId",
          "type": "uint256"
        },
        {
          "internalType": "uint256",
          "name": "_milestoneId",
          "type": "uint256"
        }
      ],
      "name": "getMilestone",
      "outputs": [
        {
          "internalType": "string",
          "name": "description",
          "type": "string"
        },
        {
          "internalType": "uint256",
          "name": "amount",
          "type": "uint256"
        },
        {
          "internalType": "string",
          "name": "proofHash",
          "type": "string"
        },
        {
          "internalType": "bool",
          "name": "proofSubmitted",
          "type": "bool"
        },
        {
          "internalType": "bool",
          "name": "approved",
          "type": "bool"
        },
        {
          "internalType": "bool",
          "name": "paid",
          "type": "bool"
        },
        {
          "internalType": "uint256",
          "name": "votesFor",
          "type": "uint256"
        },
        {
          "internalType": "uint256",
          "name": "votesAgainst",
          "type": "uint256"
        },
        {
          "internalType": "uint256",
          "name": "votingDeadline",
          "type": "uint256"
        }
      ],
      "stateMutability": "view",
      "type": "function"
    },
    {
      "inputs": [
        {
          "internalType": "uint256",
          "name": "",
          "type": "uint256"
        },
        {
          "internalType": "uint256",
          "name": "",
          "type": "uint256"
        },
        {
          "internalType": "uint256",
          "name": "",
          "type": "uint256"
        },
        {
          "internalType": "address",
          "name": "",
          "type": "address"
        }
      ],
      "name": "hasVoted",
      "outputs": [
        {
          "internalType": "bool",
          "name": "",
          "type": "bool"
        }
      ],
      "stateMutability": "view",
      "type": "function"
    },
    {
      "inputs": [
        {
          "internalType": "uint256",
          "name": "",
          "type": "uint256"
        },
        {
          "internalType": "address",
          "name": "",
          "type": "address"
        }
      ],
      "name": "isDonator",
      "outputs": [
        {
          "internalType": "bool",
          "name": "",
          "type": "bool"
        }
      ],
      "stateMutability": "view",
      "type": "function"
    },
    {
      "inputs": [],
      "name": "numberOfCampaigns",
      "outputs": [
        {
          "internalType": "uint256",
          "name": "",
          "type": "uint256"
        }
      ],
      "stateMutability": "view",
      "type": "function"
    },
    {
      "inputs": [
        {
          "internalType": "uint256",
          "name": "_campaignId",
          "type": "uint256"
        }
      ],
      "name": "requestRefund",
      "outputs": [],
      "stateMutability": "nonpayable",
      "type": "function"
    },
    {
      "inputs": [
        {
          "internalType": "uint256",
          "name": "_campaignId",
          "type": "uint256"
        },
        {
          "internalType": "uint256",
          "name": "_milestoneId",
          "type": "uint256"
        },
        {
          "internalType": "string",
          "name": "_ipfsHash",
          "type": "string"
        }
      ],
      "name": "resubmitMilestoneProof",
      "outputs": [],
      "stateMutability": "nonpayable",
      "type": "function"
    },
    {
      "inputs": [
        {
          "internalType": "uint256",
          "name": "_campaignId",
          "type": "uint256"
        },
        {
          "internalType": "uint256",
          "name": "_milestoneId",
          "type": "uint256"
        },
        {
          "internalType": "string",
          "name": "_ipfsHash",
          "type": "string"
        }
      ],
      "name": "submitMilestoneProof",
      "outputs": [],
      "stateMutability": "nonpayable",
      "type": "function"
    },
    {
      "inputs": [
        {
          "internalType": "uint256",
          "name": "_campaignId",
          "type": "uint256"
        },
        {
          "internalType": "uint256",
          "name": "_milestoneId",
          "type": "uint256"
        },
        {
          "internalType": "bool",
          "name": "_support",
          "type": "bool"
        }
      ],
      "name": "voteOnMilestone",
      "outputs": [],
      "stateMutability": "nonpayable",
      "type": "function"
    },
    {
      "inputs": [
        {
          "internalType": "uint256",
          "name": "_campaignId",
          "type": "uint256"
        },
        {
          "internalType": "uint256",
          "name": "_milestoneId",
          "type": "uint256"
        }
      ],
      "name": "withdrawMilestone",
      "outputs": [],
      "stateMutability": "nonpayable",
      "type": "function"
    }
  ],
  "bytecode": "0x6080604052600060015534801561001557600080fd5b50614fdd806100256000396000f3fe6080604052600436106101095760003560e01c80636bfe97bc116100955780639f791e5f116100645780639f791e5f146103a3578063a4b2409e146103cc578063bd87783b146103f5578063d583b7001461041e578063eb044b971461044757610109565b80636bfe97bc146102b95780636f9fb98a146102f65780638ed9895c146103215780638f3a17661461036657610109565b806337c6bcaf116100dc57806337c6bcaf146101d157806342a4fda81461020e57806345598b4a1461022a5780636813947f146102535780636b5ca27d1461029057610109565b806307ca140d1461010e5780630e783d6d14610139578063141961bc146101625780633173cd26146101a6575b600080fd5b34801561011a57600080fd5b50610123610484565b6040516101309190612e45565b60405180910390f35b34801561014557600080fd5b50610160600480360381019061015b9190612ed8565b61048a565b005b34801561016e57600080fd5b5061018960048036038101906101849190612f2b565b610c1b565b60405161019d9897969594939291906130a0565b60405180910390f35b3480156101b257600080fd5b506101bb610da0565b6040516101c89190612e45565b60405180910390f35b3480156101dd57600080fd5b506101f860048036038101906101f3919061340a565b610da7565b6040516102059190612e45565b60405180910390f35b61022860048036038101906102239190612f2b565b611219565b005b34801561023657600080fd5b50610251600480360381019061024c9190612f2b565b611638565b005b34801561025f57600080fd5b5061027a60048036038101906102759190613533565b611841565b6040516102879190612e45565b60405180910390f35b34801561029c57600080fd5b506102b760048036038101906102b29190612f2b565b611866565b005b3480156102c557600080fd5b506102e060048036038101906102db9190613573565b611a3b565b6040516102ed91906135e9565b60405180910390f35b34801561030257600080fd5b5061030b611a84565b6040516103189190612e45565b60405180910390f35b34801561032d57600080fd5b5061034860048036038101906103439190613604565b611a8c565b60405161035d99989796959493929190613644565b60405180910390f35b34801561037257600080fd5b5061038d60048036038101906103889190613533565b611c8a565b60405161039a91906135e9565b60405180910390f35b3480156103af57600080fd5b506103ca60048036038101906103c591906136df565b611cb9565b005b3480156103d857600080fd5b506103f360048036038101906103ee9190612f2b565b61208c565b005b34801561040157600080fd5b5061041c60048036038101906104179190613604565b61254f565b005b34801561042a57600080fd5b50610445600480360381019061044091906136df565b612966565b005b34801561045357600080fd5b5061046e60048036038101906104699190612f2b565b612d65565b60405161047b9190612e45565b60405180910390f35b60015481565b60015483106104ce576040517f08c379a00000000000000000000000000000000000000000000000000000000081526004016104c59061379a565b60405180910390fd5b60008060008581526020019081526020016000209050806004015442101561052b576040517f08c379a000000000000000000000000000000000000000000000000000000000815260040161052290613806565b60405180910390fd5b6000600381111561053f5761053e613029565b5b81600a0160009054906101000a900460ff16600381111561056357610562613029565b5b036106215780600301548160050154106105a957600181600a0160006101000a81548160ff0219169083600381111561059f5761059e613029565b5b02179055506105d7565b600281600a0160006101000a81548160ff021916908360038111156105d1576105d0613029565b5b02179055505b837ffbdbee1007296104d763605c2eb31f467b3e4cc929953ced44b039a074178b0982600a0160009054906101000a900460ff166040516106189190613826565b60405180910390a25b8060080180549050831061066a576040517f08c379a00000000000000000000000000000000000000000000000000000000081526004016106619061388d565b60405180910390fd5b6001600381111561067e5761067d613029565b5b81600a0160009054906101000a900460ff1660038111156106a2576106a1613029565b5b146106e2576040517f08c379a00000000000000000000000000000000000000000000000000000000081526004016106d9906138f9565b60405180910390fd5b8060000160009054906101000a900473ffffffffffffffffffffffffffffffffffffffff1673ffffffffffffffffffffffffffffffffffffffff163373ffffffffffffffffffffffffffffffffffffffff1603610774576040517f08c379a000000000000000000000000000000000000000000000000000000000815260040161076b9061398b565b60405180910390fd5b600081600801848154811061078c5761078b6139ab565b5b906000526020600020906008020190508060030160009054906101000a900460ff166107ed576040517f08c379a00000000000000000000000000000000000000000000000000000000081526004016107e490613a4c565b60405180910390fd5b62093a8081600601546108009190613a9b565b421115610842576040517f08c379a000000000000000000000000000000000000000000000000000000000815260040161083990613b1b565b60405180910390fd5b8060030160019054906101000a900460ff1615610894576040517f08c379a000000000000000000000000000000000000000000000000000000000815260040161088b90613b87565b60405180910390fd5b8060030160029054906101000a900460ff16156108e6576040517f08c379a00000000000000000000000000000000000000000000000000000000081526004016108dd90613bf3565b60405180910390fd5b60006002600087815260200190815260200160002060003373ffffffffffffffffffffffffffffffffffffffff1673ffffffffffffffffffffffffffffffffffffffff1681526020019081526020016000205490506000811161097e576040517f08c379a000000000000000000000000000000000000000000000000000000000815260040161097590613c5f565b60405180910390fd5b600082600701549050600460008881526020019081526020016000206000878152602001908152602001600020600082815260200190815260200160002060003373ffffffffffffffffffffffffffffffffffffffff1673ffffffffffffffffffffffffffffffffffffffff16815260200190815260200160002060009054906101000a900460ff1615610a47576040517f08c379a0000000000000000000000000000000000000000000000000000000008152600401610a3e90613ccb565b60405180910390fd5b6001600460008981526020019081526020016000206000888152602001908152602001600020600083815260200190815260200160002060003373ffffffffffffffffffffffffffffffffffffffff1673ffffffffffffffffffffffffffffffffffffffff16815260200190815260200160002060006101000a81548160ff0219169083151502179055508415610af85781836004016000828254610aec9190613a9b565b92505081905550610b14565b81836005016000828254610b0c9190613a9b565b925050819055505b3373ffffffffffffffffffffffffffffffffffffffff1686887fc4034c86715a9b37c41bd89fdabb308d4cc0f2aca4a22eb6b311492fefdad7438886604051610b5e929190613ceb565b60405180910390a4600083600501548460040154610b7c9190613a9b565b905060028560050154610b8f9190613d43565b8110158015610ba5575083600501548460040154115b8015610bc057508360030160019054906101000a900460ff16155b15610c115760018460030160016101000a81548160ff02191690831515021790555086887f939da3b627c123c81fe5aacebf925163337a0d4f8a03724640618078cad2489460405160405180910390a35b5050505050505050565b60006020528060005260406000206000915090508060000160009054906101000a900473ffffffffffffffffffffffffffffffffffffffff1690806001018054610c6490613da3565b80601f0160208091040260200160405190810160405280929190818152602001828054610c9090613da3565b8015610cdd5780601f10610cb257610100808354040283529160200191610cdd565b820191906000526020600020905b815481529060010190602001808311610cc057829003601f168201915b505050505090806002018054610cf290613da3565b80601f0160208091040260200160405190810160405280929190818152602001828054610d1e90613da3565b8015610d6b5780601f10610d4057610100808354040283529160200191610d6b565b820191906000526020600020905b815481529060010190602001808311610d4e57829003601f168201915b50505050509080600301549080600401549080600501549080600901549080600a0160009054906101000a900460ff16905088565b62093a8081565b6000428411610deb576040517f08c379a0000000000000000000000000000000000000000000000000000000008152600401610de290613e46565b60405180910390fd5b60008511610e2e576040517f08c379a0000000000000000000000000000000000000000000000000000000008152600401610e2590613eb2565b60405180910390fd5b8151835114610e72576040517f08c379a0000000000000000000000000000000000000000000000000000000008152600401610e6990613f1e565b60405180910390fd5b6000835111610eb6576040517f08c379a0000000000000000000000000000000000000000000000000000000008152600401610ead90613f8a565b60405180910390fd5b600080600060015481526020019081526020016000209050338160000160006101000a81548173ffffffffffffffffffffffffffffffffffffffff021916908373ffffffffffffffffffffffffffffffffffffffff16021790555087816001019081610f229190614156565b5086816002019081610f349190614156565b508581600301819055508481600401819055506000816005018190555060008160090181905550600081600a0160006101000a81548160ff02191690836003811115610f8357610f82613029565b5b02179055506000805b85518110156111555782600801604051806101400160405280888481518110610fb857610fb76139ab565b5b60200260200101518152602001878481518110610fd857610fd76139ab565b5b6020026020010151815260200160405180602001604052806000815250815260200160001515815260200160001515815260200160001515815260200160008152602001600081526020016000815260200160008152509080600181540180825580915050600190039060005260206000209060080201600090919091909150600082015181600001908161106d9190614156565b5060208201518160010155604082015181600201908161108d9190614156565b5060608201518160030160006101000a81548160ff02191690831515021790555060808201518160030160016101000a81548160ff02191690831515021790555060a08201518160030160026101000a81548160ff02191690831515021790555060c0820151816004015560e0820151816005015561010082015181600601556101208201518160070155505084818151811061112d5761112c6139ab565b5b6020026020010151826111409190613a9b565b9150808061114d90614228565b915050610f8c565b5086811115611199576040517f08c379a0000000000000000000000000000000000000000000000000000000008152600401611190906142bc565b60405180910390fd5b60006001549050600160008154809291906111b390614228565b91905055503373ffffffffffffffffffffffffffffffffffffffff16817f91b289a829e71d811b8c69e4a24ba2d40d115d8a236e9a724cb3bb2d43cf72238a8a6040516112019291906142dc565b60405180910390a38093505050509695505050505050565b600154811061125d576040517f08c379a00000000000000000000000000000000000000000000000000000000081526004016112549061379a565b60405180910390fd5b60008060008381526020019081526020016000209050600034116112b6576040517f08c379a00000000000000000000000000000000000000000000000000000000081526004016112ad90614377565b60405180910390fd5b806004015442106112fc576040517f08c379a00000000000000000000000000000000000000000000000000000000081526004016112f3906143e3565b60405180910390fd5b600060038111156113105761130f613029565b5b81600a0160009054906101000a900460ff16600381111561133457611333613029565b5b14611374576040517f08c379a000000000000000000000000000000000000000000000000000000000815260040161136b9061444f565b60405180910390fd5b8060000160009054906101000a900473ffffffffffffffffffffffffffffffffffffffff1673ffffffffffffffffffffffffffffffffffffffff163373ffffffffffffffffffffffffffffffffffffffff1603611406576040517f08c379a00000000000000000000000000000000000000000000000000000000081526004016113fd906144e1565b60405180910390fd5b6003600083815260200190815260200160002060003373ffffffffffffffffffffffffffffffffffffffff1673ffffffffffffffffffffffffffffffffffffffff16815260200190815260200160002060009054906101000a900460ff166115635760016003600084815260200190815260200160002060003373ffffffffffffffffffffffffffffffffffffffff1673ffffffffffffffffffffffffffffffffffffffff16815260200190815260200160002060006101000a81548160ff02191690831515021790555080600601339080600181540180825580915050600190039060005260206000200160009091909190916101000a81548173ffffffffffffffffffffffffffffffffffffffff021916908373ffffffffffffffffffffffffffffffffffffffff16021790555080600701600090806001815401808255809150506001900390600052602060002001600090919091909150555b346002600084815260200190815260200160002060003373ffffffffffffffffffffffffffffffffffffffff1673ffffffffffffffffffffffffffffffffffffffff16815260200190815260200160002060008282546115c39190613a9b565b92505081905550348160050160008282546115de9190613a9b565b925050819055503373ffffffffffffffffffffffffffffffffffffffff16827f0b5b4c52969ff7329ecf7ee536409fda87812b15a8622bc6e8cdeab3aee14a263460405161162c9190612e45565b60405180910390a35050565b600154811061167c576040517f08c379a00000000000000000000000000000000000000000000000000000000081526004016116739061379a565b60405180910390fd5b600080600083815260200190815260200160002090508060000160009054906101000a900473ffffffffffffffffffffffffffffffffffffffff1673ffffffffffffffffffffffffffffffffffffffff163373ffffffffffffffffffffffffffffffffffffffff1614611724576040517f08c379a000000000000000000000000000000000000000000000000000000000815260040161171b9061454d565b60405180910390fd5b6000600381111561173857611737613029565b5b81600a0160009054906101000a900460ff16600381111561175c5761175b613029565b5b1461179c576040517f08c379a0000000000000000000000000000000000000000000000000000000008152600401611793906145b9565b60405180910390fd5b60008160050154146117e3576040517f08c379a00000000000000000000000000000000000000000000000000000000081526004016117da90614625565b60405180910390fd5b600381600a0160006101000a81548160ff0219169083600381111561180b5761180a613029565b5b0217905550817f403b6718db13878ac16c27decb08f09d3a10f116c7c25af575ff5bfbc11ae9e660405160405180910390a25050565b6002602052816000526040600020602052806000526040600020600091509150505481565b60015481106118aa576040517f08c379a00000000000000000000000000000000000000000000000000000000081526004016118a19061379a565b60405180910390fd5b60008060008381526020019081526020016000209050600060038111156118d4576118d3613029565b5b81600a0160009054906101000a900460ff1660038111156118f8576118f7613029565b5b14611938576040517f08c379a000000000000000000000000000000000000000000000000000000000815260040161192f90614691565b60405180910390fd5b806004015442101561197f576040517f08c379a0000000000000000000000000000000000000000000000000000000008152600401611976906146fd565b60405180910390fd5b80600301548160050154106119c057600181600a0160006101000a81548160ff021916908360038111156119b6576119b5613029565b5b02179055506119ee565b600281600a0160006101000a81548160ff021916908360038111156119e8576119e7613029565b5b02179055505b817ffbdbee1007296104d763605c2eb31f467b3e4cc929953ced44b039a074178b0982600a0160009054906101000a900460ff16604051611a2f9190613826565b60405180910390a25050565b600460205283600052604060002060205282600052604060002060205281600052604060002060205280600052604060002060009350935050509054906101000a900460ff1681565b600047905090565b60606000606060008060008060008060008060008d81526020019081526020016000206008018b81548110611ac457611ac36139ab565b5b90600052602060002090600802019050806000018160010154826002018360030160009054906101000a900460ff168460030160019054906101000a900460ff168560030160029054906101000a900460ff16866004015487600501548860030160009054906101000a900460ff16611b3e576000611b52565b62093a808960060154611b519190613a9b565b5b888054611b5e90613da3565b80601f0160208091040260200160405190810160405280929190818152602001828054611b8a90613da3565b8015611bd75780601f10611bac57610100808354040283529160200191611bd7565b820191906000526020600020905b815481529060010190602001808311611bba57829003601f168201915b50505050509850868054611bea90613da3565b80601f0160208091040260200160405190810160405280929190818152602001828054611c1690613da3565b8015611c635780601f10611c3857610100808354040283529160200191611c63565b820191906000526020600020905b815481529060010190602001808311611c4657829003601f168201915b50505050509650995099509950995099509950995099509950509295985092959850929598565b60036020528160005260406000206020528060005260406000206000915091509054906101000a900460ff1681565b6001548310611cfd576040517f08c379a0000000000000000000000000000000000000000000000000000000008152600401611cf49061379a565b60405180910390fd5b600080600085815260200190815260200160002090508060000160009054906101000a900473ffffffffffffffffffffffffffffffffffffffff1673ffffffffffffffffffffffffffffffffffffffff163373ffffffffffffffffffffffffffffffffffffffff1614611da5576040517f08c379a0000000000000000000000000000000000000000000000000000000008152600401611d9c90614769565b60405180910390fd5b60016003811115611db957611db8613029565b5b81600a0160009054906101000a900460ff166003811115611ddd57611ddc613029565b5b14611e1d576040517f08c379a0000000000000000000000000000000000000000000000000000000008152600401611e14906138f9565b60405180910390fd5b80600801805490508310611e66576040517f08c379a0000000000000000000000000000000000000000000000000000000008152600401611e5d9061388d565b60405180910390fd5b6000816008018481548110611e7e57611e7d6139ab565b5b906000526020600020906008020190508060030160009054906101000a900460ff1615611ee0576040517f08c379a0000000000000000000000000000000000000000000000000000000008152600401611ed7906147d5565b60405180910390fd5b8060030160019054906101000a900460ff1615611f32576040517f08c379a0000000000000000000000000000000000000000000000000000000008152600401611f2990613b87565b60405180910390fd5b8060030160029054906101000a900460ff1615611f84576040517f08c379a0000000000000000000000000000000000000000000000000000000008152600401611f7b90613bf3565b60405180910390fd5b81600901548414611fca576040517f08c379a0000000000000000000000000000000000000000000000000000000008152600401611fc190614841565b60405180910390fd5b60008390506000815111612013576040517f08c379a000000000000000000000000000000000000000000000000000000000815260040161200a906148ad565b60405180910390fd5b838260020190816120249190614156565b5060018260030160006101000a81548160ff02191690831515021790555042826006018190555084867fa0369f36b2a8975ad69f1e8b8de8b56312cbcfe25149ce1e43f83d5e612f451b8660405161207c91906148cd565b60405180910390a3505050505050565b600560009054906101000a900460ff16156120dc576040517f08c379a00000000000000000000000000000000000000000000000000000000081526004016120d39061493b565b60405180910390fd5b6001600560006101000a81548160ff021916908315150217905550600154811061213b576040517f08c379a00000000000000000000000000000000000000000000000000000000081526004016121329061379a565b60405180910390fd5b600080600083815260200190815260200160002090506000600381111561216557612164613029565b5b81600a0160009054906101000a900460ff16600381111561218957612188613029565b5b0361228e5780600401544210156121d5576040517f08c379a00000000000000000000000000000000000000000000000000000000081526004016121cc906149a7565b60405180910390fd5b806003015481600501541061221657600181600a0160006101000a81548160ff0219169083600381111561220c5761220b613029565b5b0217905550612244565b600281600a0160006101000a81548160ff0219169083600381111561223e5761223d613029565b5b02179055505b817ffbdbee1007296104d763605c2eb31f467b3e4cc929953ced44b039a074178b0982600a0160009054906101000a900460ff166040516122859190613826565b60405180910390a25b600260038111156122a2576122a1613029565b5b81600a0160009054906101000a900460ff1660038111156122c6576122c5613029565b5b148061230657506003808111156122e0576122df613029565b5b81600a0160009054906101000a900460ff16600381111561230457612303613029565b5b145b612345576040517f08c379a000000000000000000000000000000000000000000000000000000000815260040161233c90614a13565b60405180910390fd5b60006002600084815260200190815260200160002060003373ffffffffffffffffffffffffffffffffffffffff1673ffffffffffffffffffffffffffffffffffffffff168152602001908152602001600020549050600081116123dd576040517f08c379a00000000000000000000000000000000000000000000000000000000081526004016123d490614a7f565b60405180910390fd5b60006002600085815260200190815260200160002060003373ffffffffffffffffffffffffffffffffffffffff1673ffffffffffffffffffffffffffffffffffffffff1681526020019081526020016000208190555060003373ffffffffffffffffffffffffffffffffffffffff168260405161245990614ad0565b60006040518083038185875af1925050503d8060008114612496576040519150601f19603f3d011682016040523d82523d6000602084013e61249b565b606091505b50509050806124df576040517f08c379a00000000000000000000000000000000000000000000000000000000081526004016124d690614b31565b60405180910390fd5b3373ffffffffffffffffffffffffffffffffffffffff16847f7ca5472b7ea78c2c0141c5a12ee6d170cf4ce8ed06be3d22c8252ddfc7a6a2c4846040516125269190612e45565b60405180910390a35050506000600560006101000a81548160ff02191690831515021790555050565b600560009054906101000a900460ff161561259f576040517f08c379a00000000000000000000000000000000000000000000000000000000081526004016125969061493b565b60405180910390fd5b6001600560006101000a81548160ff02191690831515021790555060015482106125fe576040517f08c379a00000000000000000000000000000000000000000000000000000000081526004016125f59061379a565b60405180910390fd5b600080600084815260200190815260200160002090508060000160009054906101000a900473ffffffffffffffffffffffffffffffffffffffff1673ffffffffffffffffffffffffffffffffffffffff163373ffffffffffffffffffffffffffffffffffffffff16146126a6576040517f08c379a000000000000000000000000000000000000000000000000000000000815260040161269d90614b9d565b60405180910390fd5b806008018054905082106126ef576040517f08c379a00000000000000000000000000000000000000000000000000000000081526004016126e69061388d565b60405180910390fd5b6000816008018381548110612707576127066139ab565b5b906000526020600020906008020190508060030160019054906101000a900460ff16612768576040517f08c379a000000000000000000000000000000000000000000000000000000000815260040161275f90614c09565b60405180910390fd5b8060030160029054906101000a900460ff16156127ba576040517f08c379a00000000000000000000000000000000000000000000000000000000081526004016127b190614c75565b60405180910390fd5b8060010154471015612801576040517f08c379a00000000000000000000000000000000000000000000000000000000081526004016127f890614ce1565b60405180910390fd5b60018160030160026101000a81548160ff02191690831515021790555060018361282b9190613a9b565b826009018190555060008260000160009054906101000a900473ffffffffffffffffffffffffffffffffffffffff1673ffffffffffffffffffffffffffffffffffffffff16826001015460405161288190614ad0565b60006040518083038185875af1925050503d80600081146128be576040519150601f19603f3d011682016040523d82523d6000602084013e6128c3565b606091505b5050905080612907576040517f08c379a00000000000000000000000000000000000000000000000000000000081526004016128fe90614d4d565b60405180910390fd5b83857fafc8fc5dd6037bf38d34d9d51bb5ecc0af143248332c63ae9e83bbef6d4638d9846001015460405161293c9190612e45565b60405180910390a35050506000600560006101000a81548160ff0219169083151502179055505050565b60015483106129aa576040517f08c379a00000000000000000000000000000000000000000000000000000000081526004016129a19061379a565b60405180910390fd5b600080600085815260200190815260200160002090508060000160009054906101000a900473ffffffffffffffffffffffffffffffffffffffff1673ffffffffffffffffffffffffffffffffffffffff163373ffffffffffffffffffffffffffffffffffffffff1614612a52576040517f08c379a0000000000000000000000000000000000000000000000000000000008152600401612a4990614db9565b60405180910390fd5b80600801805490508310612a9b576040517f08c379a0000000000000000000000000000000000000000000000000000000008152600401612a929061388d565b60405180910390fd5b6000816008018481548110612ab357612ab26139ab565b5b906000526020600020906008020190508060030160009054906101000a900460ff16612b14576040517f08c379a0000000000000000000000000000000000000000000000000000000008152600401612b0b90614e25565b60405180910390fd5b8060030160019054906101000a900460ff1615612b66576040517f08c379a0000000000000000000000000000000000000000000000000000000008152600401612b5d90613b87565b60405180910390fd5b8060030160029054906101000a900460ff1615612bb8576040517f08c379a0000000000000000000000000000000000000000000000000000000008152600401612baf90613bf3565b60405180910390fd5b62093a808160060154612bcb9190613a9b565b4211612c0c576040517f08c379a0000000000000000000000000000000000000000000000000000000008152600401612c0390614eb7565b60405180910390fd5b600081600501548260040154612c229190613a9b565b905081600401548260050154101580612c4a575060028360050154612c479190613d43565b81105b612c89576040517f08c379a0000000000000000000000000000000000000000000000000000000008152600401612c8090614f23565b60405180910390fd5b60008490506000815111612cd2576040517f08c379a0000000000000000000000000000000000000000000000000000000008152600401612cc9906148ad565b60405180910390fd5b84836002019081612ce39190614156565b5042836006018190555060008360040181905550600083600501819055506001836007016000828254612d169190613a9b565b9250508190555085877fa434cac7abe18f8ecb471254f926b73271efb100ddb584ab7cc6c078b0933267878660070154604051612d54929190614f43565b60405180910390a350505050505050565b60008060008084815260200190815260200160002090506000805b8260080180549050811015612e1257826008018181548110612da557612da46139ab565b5b906000526020600020906008020160030160029054906101000a900460ff1615612dff57826008018181548110612ddf57612dde6139ab565b5b90600052602060002090600802016001015482612dfc9190613a9b565b91505b8080612e0a90614228565b915050612d80565b50808260050154612e239190614f73565b92505050919050565b6000819050919050565b612e3f81612e2c565b82525050565b6000602082019050612e5a6000830184612e36565b92915050565b6000604051905090565b600080fd5b600080fd5b612e7d81612e2c565b8114612e8857600080fd5b50565b600081359050612e9a81612e74565b92915050565b60008115159050919050565b612eb581612ea0565b8114612ec057600080fd5b50565b600081359050612ed281612eac565b92915050565b600080600060608486031215612ef157612ef0612e6a565b5b6000612eff86828701612e8b565b9350506020612f1086828701612e8b565b9250506040612f2186828701612ec3565b9150509250925092565b600060208284031215612f4157612f40612e6a565b5b6000612f4f84828501612e8b565b91505092915050565b600073ffffffffffffffffffffffffffffffffffffffff82169050919050565b6000612f8382612f58565b9050919050565b612f9381612f78565b82525050565b600081519050919050565b600082825260208201905092915050565b60005b83811015612fd3578082015181840152602081019050612fb8565b60008484015250505050565b6000601f19601f8301169050919050565b6000612ffb82612f99565b6130058185612fa4565b9350613015818560208601612fb5565b61301e81612fdf565b840191505092915050565b7f4e487b7100000000000000000000000000000000000000000000000000000000600052602160045260246000fd5b6004811061306957613068613029565b5b50565b600081905061307a82613058565b919050565b600061308a8261306c565b9050919050565b61309a8161307f565b82525050565b6000610100820190506130b6600083018b612f8a565b81810360208301526130c8818a612ff0565b905081810360408301526130dc8189612ff0565b90506130eb6060830188612e36565b6130f86080830187612e36565b61310560a0830186612e36565b61311260c0830185612e36565b61311f60e0830184613091565b9998505050505050505050565b600080fd5b600080fd5b7f4e487b7100000000000000000000000000000000000000000000000000000000600052604160045260246000fd5b61316e82612fdf565b810181811067ffffffffffffffff8211171561318d5761318c613136565b5b80604052505050565b60006131a0612e60565b90506131ac8282613165565b919050565b600067ffffffffffffffff8211156131cc576131cb613136565b5b6131d582612fdf565b9050602081019050919050565b82818337600083830152505050565b60006132046131ff846131b1565b613196565b9050828152602081018484840111156132205761321f613131565b5b61322b8482856131e2565b509392505050565b600082601f8301126132485761324761312c565b5b81356132588482602086016131f1565b91505092915050565b600067ffffffffffffffff82111561327c5761327b613136565b5b602082029050602081019050919050565b600080fd5b60006132a56132a084613261565b613196565b905080838252602082019050602084028301858111156132c8576132c761328d565b5b835b8181101561330f57803567ffffffffffffffff8111156132ed576132ec61312c565b5b8086016132fa8982613233565b855260208501945050506020810190506132ca565b5050509392505050565b600082601f83011261332e5761332d61312c565b5b813561333e848260208601613292565b91505092915050565b600067ffffffffffffffff82111561336257613361613136565b5b602082029050602081019050919050565b600061338661338184613347565b613196565b905080838252602082019050602084028301858111156133a9576133a861328d565b5b835b818110156133d257806133be8882612e8b565b8452602084019350506020810190506133ab565b5050509392505050565b600082601f8301126133f1576133f061312c565b5b8135613401848260208601613373565b91505092915050565b60008060008060008060c0878903121561342757613426612e6a565b5b600087013567ffffffffffffffff81111561344557613444612e6f565b5b61345189828a01613233565b965050602087013567ffffffffffffffff81111561347257613471612e6f565b5b61347e89828a01613233565b955050604061348f89828a01612e8b565b94505060606134a089828a01612e8b565b935050608087013567ffffffffffffffff8111156134c1576134c0612e6f565b5b6134cd89828a01613319565b92505060a087013567ffffffffffffffff8111156134ee576134ed612e6f565b5b6134fa89828a016133dc565b9150509295509295509295565b61351081612f78565b811461351b57600080fd5b50565b60008135905061352d81613507565b92915050565b6000806040838503121561354a57613549612e6a565b5b600061355885828601612e8b565b92505060206135698582860161351e565b9150509250929050565b6000806000806080858703121561358d5761358c612e6a565b5b600061359b87828801612e8b565b94505060206135ac87828801612e8b565b93505060406135bd87828801612e8b565b92505060606135ce8782880161351e565b91505092959194509250565b6135e381612ea0565b82525050565b60006020820190506135fe60008301846135da565b92915050565b6000806040838503121561361b5761361a612e6a565b5b600061362985828601612e8b565b925050602061363a85828601612e8b565b9150509250929050565b600061012082019050818103600083015261365f818c612ff0565b905061366e602083018b612e36565b8181036040830152613680818a612ff0565b905061368f60608301896135da565b61369c60808301886135da565b6136a960a08301876135da565b6136b660c0830186612e36565b6136c360e0830185612e36565b6136d1610100830184612e36565b9a9950505050505050505050565b6000806000606084860312156136f8576136f7612e6a565b5b600061370686828701612e8b565b935050602061371786828701612e8b565b925050604084013567ffffffffffffffff81111561373857613737612e6f565b5b61374486828701613233565b9150509250925092565b7f43616d706169676e20646f6573206e6f74206578697374000000000000000000600082015250565b6000613784601783612fa4565b915061378f8261374e565b602082019050919050565b600060208201905081810360008301526137b381613777565b9050919050565b7f5761697420666f7220646561646c696e65000000000000000000000000000000600082015250565b60006137f0601183612fa4565b91506137fb826137ba565b602082019050919050565b6000602082019050818103600083015261381f816137e3565b9050919050565b600060208201905061383b6000830184613091565b92915050565b7f496e76616c6964206d696c6573746f6e65000000000000000000000000000000600082015250565b6000613877601183612fa4565b915061388282613841565b602082019050919050565b600060208201905081810360008301526138a68161386a565b9050919050565b7f43616d706169676e206e6f74207375636365737366756c000000000000000000600082015250565b60006138e3601783612fa4565b91506138ee826138ad565b602082019050919050565b60006020820190508181036000830152613912816138d6565b9050919050565b7f4f776e65722063616e6e6f7420766f7465206f6e206f776e206d696c6573746f60008201527f6e65730000000000000000000000000000000000000000000000000000000000602082015250565b6000613975602383612fa4565b915061398082613919565b604082019050919050565b600060208201905081810360008301526139a481613968565b9050919050565b7f4e487b7100000000000000000000000000000000000000000000000000000000600052603260045260246000fd5b7f4f776e657220686173206e6f74207375626d69747465642070726f6f6620796560008201527f7400000000000000000000000000000000000000000000000000000000000000602082015250565b6000613a36602183612fa4565b9150613a41826139da565b604082019050919050565b60006020820190508181036000830152613a6581613a29565b9050919050565b7f4e487b7100000000000000000000000000000000000000000000000000000000600052601160045260246000fd5b6000613aa682612e2c565b9150613ab183612e2c565b9250828201905080821115613ac957613ac8613a6c565b5b92915050565b7f566f74696e672077696e646f772068617320636c6f7365640000000000000000600082015250565b6000613b05601883612fa4565b9150613b1082613acf565b602082019050919050565b60006020820190508181036000830152613b3481613af8565b9050919050565b7f4d696c6573746f6e6520616c726561647920617070726f766564000000000000600082015250565b6000613b71601a83612fa4565b9150613b7c82613b3b565b602082019050919050565b60006020820190508181036000830152613ba081613b64565b9050919050565b7f4d696c6573746f6e6520616c7265616479207061696400000000000000000000600082015250565b6000613bdd601683612fa4565b9150613be882613ba7565b602082019050919050565b60006020820190508181036000830152613c0c81613bd0565b9050919050565b7f4d757374206265206120636f6e7472696275746f7220746f20766f7465000000600082015250565b6000613c49601d83612fa4565b9150613c5482613c13565b602082019050919050565b60006020820190508181036000830152613c7881613c3c565b9050919050565b7f416c726561647920766f74656400000000000000000000000000000000000000600082015250565b6000613cb5600d83612fa4565b9150613cc082613c7f565b602082019050919050565b60006020820190508181036000830152613ce481613ca8565b9050919050565b6000604082019050613d0060008301856135da565b613d0d6020830184612e36565b9392505050565b7f4e487b7100000000000000000000000000000000000000000000000000000000600052601260045260246000fd5b6000613d4e82612e2c565b9150613d5983612e2c565b925082613d6957613d68613d14565b5b828204905092915050565b7f4e487b7100000000000000000000000000000000000000000000000000000000600052602260045260246000fd5b60006002820490506001821680613dbb57607f821691505b602082108103613dce57613dcd613d74565b5b50919050565b7f54686520646561646c696e65206d7573742062652061206461746520696e207460008201527f6865206675747572652e00000000000000000000000000000000000000000000602082015250565b6000613e30602a83612fa4565b9150613e3b82613dd4565b604082019050919050565b60006020820190508181036000830152613e5f81613e23565b9050919050565b7f546172676574206d7573742062652067726561746572207468616e2030000000600082015250565b6000613e9c601d83612fa4565b9150613ea782613e66565b602082019050919050565b60006020820190508181036000830152613ecb81613e8f565b9050919050565b7f4d696c6573746f6e6520636f756e7473206d757374206d617463680000000000600082015250565b6000613f08601b83612fa4565b9150613f1382613ed2565b602082019050919050565b60006020820190508181036000830152613f3781613efb565b9050919050565b7f4e6f204d696c6573746f6e657300000000000000000000000000000000000000600082015250565b6000613f74600d83612fa4565b9150613f7f82613f3e565b602082019050919050565b60006020820190508181036000830152613fa381613f67565b9050919050565b60008190508160005260206000209050919050565b60006020601f8301049050919050565b600082821b905092915050565b60006008830261400c7fffffffffffffffffffffffffffffffffffffffffffffffffffffffffffffffff82613fcf565b6140168683613fcf565b95508019841693508086168417925050509392505050565b6000819050919050565b600061405361404e61404984612e2c565b61402e565b612e2c565b9050919050565b6000819050919050565b61406d83614038565b6140816140798261405a565b848454613fdc565b825550505050565b600090565b614096614089565b6140a1818484614064565b505050565b5b818110156140c5576140ba60008261408e565b6001810190506140a7565b5050565b601f82111561410a576140db81613faa565b6140e484613fbf565b810160208510156140f3578190505b6141076140ff85613fbf565b8301826140a6565b50505b505050565b600082821c905092915050565b600061412d6000198460080261410f565b1980831691505092915050565b6000614146838361411c565b9150826002028217905092915050565b61415f82612f99565b67ffffffffffffffff81111561417857614177613136565b5b6141828254613da3565b61418d8282856140c9565b600060209050601f8311600181146141c057600084156141ae578287015190505b6141b8858261413a565b865550614220565b601f1984166141ce86613faa565b60005b828110156141f6578489015182556001820191506020850194506020810190506141d1565b86831015614213578489015161420f601f89168261411c565b8355505b6001600288020188555050505b505050505050565b600061423382612e2c565b91507fffffffffffffffffffffffffffffffffffffffffffffffffffffffffffffffff820361426557614264613a6c565b5b600182019050919050565b7f4d696c6573746f6e6520616d6f756e7473206578636565642074617267657400600082015250565b60006142a6601f83612fa4565b91506142b182614270565b602082019050919050565b600060208201905081810360008301526142d581614299565b9050919050565b60006040820190506142f16000830185612e36565b6142fe6020830184612e36565b9392505050565b7f446f6e6174696f6e20616d6f756e74206d75737420626520677265617465722060008201527f7468616e20300000000000000000000000000000000000000000000000000000602082015250565b6000614361602683612fa4565b915061436c82614305565b604082019050919050565b6000602082019050818103600083015261439081614354565b9050919050565b7f43616d706169676e20646561646c696e65206861732070617373656400000000600082015250565b60006143cd601c83612fa4565b91506143d882614397565b602082019050919050565b600060208201905081810360008301526143fc816143c0565b9050919050565b7f43616d706169676e206973206e6f742061637469766500000000000000000000600082015250565b6000614439601683612fa4565b915061444482614403565b602082019050919050565b600060208201905081810360008301526144688161442c565b9050919050565b7f4f776e65722063616e6e6f7420646f6e61746520746f206f776e2063616d706160008201527f69676e0000000000000000000000000000000000000000000000000000000000602082015250565b60006144cb602383612fa4565b91506144d68261446f565b604082019050919050565b600060208201905081810360008301526144fa816144be565b9050919050565b7f4f6e6c79206f776e65722063616e2063616e63656c0000000000000000000000600082015250565b6000614537601583612fa4565b915061454282614501565b602082019050919050565b600060208201905081810360008301526145668161452a565b9050919050565b7f4e6f742061637469766500000000000000000000000000000000000000000000600082015250565b60006145a3600a83612fa4565b91506145ae8261456d565b602082019050919050565b600060208201905081810360008301526145d281614596565b9050919050565b7f416c72656164792046756e646564000000000000000000000000000000000000600082015250565b600061460f600e83612fa4565b915061461a826145d9565b602082019050919050565b6000602082019050818103600083015261463e81614602565b9050919050565b7f416c72656164792046696e616c697a6564000000000000000000000000000000600082015250565b600061467b601183612fa4565b915061468682614645565b602082019050919050565b600060208201905081810360008301526146aa8161466e565b9050919050565b7f446561646c696e65206e6f742072656163686564207965740000000000000000600082015250565b60006146e7601883612fa4565b91506146f2826146b1565b602082019050919050565b60006020820190508181036000830152614716816146da565b9050919050565b7f4f6e6c79206f776e65722063616e207375626d69742070726f6f660000000000600082015250565b6000614753601b83612fa4565b915061475e8261471d565b602082019050919050565b6000602082019050818103600083015261478281614746565b9050919050565b7f50726f6f6620616c7265616479207375626d6974746564000000000000000000600082015250565b60006147bf601783612fa4565b91506147ca82614789565b602082019050919050565b600060208201905081810360008301526147ee816147b2565b9050919050565b7f5061792070726576696f7573206d696c6573746f6e6573206669727374000000600082015250565b600061482b601d83612fa4565b9150614836826147f5565b602082019050919050565b6000602082019050818103600083015261485a8161481e565b9050919050565b7f50726f6f6620686173682063616e6e6f7420626520656d707479000000000000600082015250565b6000614897601a83612fa4565b91506148a282614861565b602082019050919050565b600060208201905081810360008301526148c68161488a565b9050919050565b600060208201905081810360008301526148e78184612ff0565b905092915050565b7f5265656e7472616e637900000000000000000000000000000000000000000000600082015250565b6000614925600a83612fa4565b9150614930826148ef565b602082019050919050565b6000602082019050818103600083015261495481614918565b9050919050565b7f546f6f206561726c790000000000000000000000000000000000000000000000600082015250565b6000614991600983612fa4565b915061499c8261495b565b602082019050919050565b600060208201905081810360008301526149c081614984565b9050919050565b7f526566756e6420636f6e646974696f6e73206e6f74206d657400000000000000600082015250565b60006149fd601983612fa4565b9150614a08826149c7565b602082019050919050565b60006020820190508181036000830152614a2c816149f0565b9050919050565b7f4e6f20636f6e747269627574696f6e20666f756e640000000000000000000000600082015250565b6000614a69601583612fa4565b9150614a7482614a33565b602082019050919050565b60006020820190508181036000830152614a9881614a5c565b9050919050565b600081905092915050565b50565b6000614aba600083614a9f565b9150614ac582614aaa565b600082019050919050565b6000614adb82614aad565b9150819050919050565b7f4661696c656420746f2073656e6420726566756e640000000000000000000000600082015250565b6000614b1b601583612fa4565b9150614b2682614ae5565b602082019050919050565b60006020820190508181036000830152614b4a81614b0e565b9050919050565b7f4f6e6c792063616d706169676e206f776e65722063616e207769746864726177600082015250565b6000614b87602083612fa4565b9150614b9282614b51565b602082019050919050565b60006020820190508181036000830152614bb681614b7a565b9050919050565b7f4d696c6573746f6e65206e6f7420617070726f76656400000000000000000000600082015250565b6000614bf3601683612fa4565b9150614bfe82614bbd565b602082019050919050565b60006020820190508181036000830152614c2281614be6565b9050919050565b7f4d696c6573746f6e6520616c726561647920736574746c656400000000000000600082015250565b6000614c5f601983612fa4565b9150614c6a82614c29565b602082019050919050565b60006020820190508181036000830152614c8e81614c52565b9050919050565b7f496e73756666696369656e742062616c616e6365000000000000000000000000600082015250565b6000614ccb601483612fa4565b9150614cd682614c95565b602082019050919050565b60006020820190508181036000830152614cfa81614cbe565b9050919050565b7f4661696c656420746f2073656e64204574686572000000000000000000000000600082015250565b6000614d37601483612fa4565b9150614d4282614d01565b602082019050919050565b60006020820190508181036000830152614d6681614d2a565b9050919050565b7f4f6e6c79206f776e65722063616e2072657375626d69742070726f6f66000000600082015250565b6000614da3601d83612fa4565b9150614dae82614d6d565b602082019050919050565b60006020820190508181036000830152614dd281614d96565b9050919050565b7f4e6f2070726f6f66207375626d69747465642079657400000000000000000000600082015250565b6000614e0f601683612fa4565b9150614e1a82614dd9565b602082019050919050565b60006020820190508181036000830152614e3e81614e02565b9050919050565b7f50726576696f757320766f74696e672077696e646f77207374696c6c206f706560008201527f6e00000000000000000000000000000000000000000000000000000000000000602082015250565b6000614ea1602183612fa4565b9150614eac82614e45565b604082019050919050565b60006020820190508181036000830152614ed081614e94565b9050919050565b7f4d696c6573746f6e6520766f746520616c726561647920706173736564000000600082015250565b6000614f0d601d83612fa4565b9150614f1882614ed7565b602082019050919050565b60006020820190508181036000830152614f3c81614f00565b9050919050565b60006040820190508181036000830152614f5d8185612ff0565b9050614f6c6020830184612e36565b9392505050565b6000614f7e82612e2c565b9150614f8983612e2c565b9250828203905081811115614fa157614fa0613a6c565b5b9291505056fea2646970667358221220839eb68c28af21e0699be16e5255bfa768f0194dccb93bbb89c23a5a8030f7cd64736f6c63430008120033",
  "linkReferences": {},
  "deployedLinkReferences": {}
}