{
  "_format": "hh-sol-artifact-1",
  "contractName": "CrowdFunding",
  "sourceName": "contracts/crowfunding.sol",
  "abi": [
    {
      "anonymous": false,
      "inputs": [
        {
          "indexed": true,
          "internalType": "uint256",
          "name": "campaignId",
          "type": "uint256"
        }
      ],
      "name": "CampaignCancelled",
      "type": "event"
    },
    {
      "anonymous": false,
      "inputs": [
        {
          "indexed": true,
          "internalType": "uint256",
          "name": "campaignId",
          "type": "uint256"
        },
        {
          "indexed": true,
          "internalType": "address",
          "name": "owner",
          "type": "address"
        },
        {
          "indexed": false,
          "internalType": "uint256",
          "name": "target",
          "type": "uint256"
        },
        {
          "indexed": false,
          "internalType": "uint256",
          "name": "deadline",
          "type": "uint256"
        }
      ],
      "name": "CampaignCreated",
      "type": "event"
    },
    {
      "anonymous": false,
      "inputs": [
        {
          "indexed": true,
          "internalType": "uint256",
          "name": "campaignId",
          "type": "uint256"
        },
        {
          "indexed": false,
          "internalType": "enum CrowdFunding.CampaignStatus",
          "name": "status",
          "type": "uint8"
        }
      ],
      "name": "CampaignFinalized",
      "type": "event"
    },
    {
      "anonymous": false,
      "inputs": [
        {
          "indexed": true,
          "internalType": "uint256",
          "name": "campaignId",
          "type": "uint256"
        },
        {
          "indexed": true,
          "internalType": "address",
          "name": "donor",
          "type": "address"
        },
        {
          "indexed": false,
          "internalType": "uint256",
          "name": "amount",
          "type": "uint256"
        }
      ],
      "name": "DonationReceived",
      "type": "event"
    },
    {
      "anonymous": false,
      "inputs": [
        {
          "indexed": true,
          "internalType": "uint256",
          "name": "campaignId",
          "type": "uint256"
        },
        {
          "indexed": true,
          "internalType": "uint256",
          "name": "milestoneId",
          "type": "uint256"
        }
      ],
      "name": "MilestoneApproved",
      "type": "event"
    },
    {
      "anonymous": false,
      "inputs": [
        {
          "indexed": true,
          "internalType": "uint256",
          "name": "campaignId",
          "type": "uint256"
        },
        {
          "indexed": true,
          "internalType": "uint256",
          "name": "milestoneId",
          "type": "uint256"
        },
        {
          "indexed": false,
          "internalType": "uint256",
          "name": "amount",
          "type": "uint256"
        }
      ],
      "name": "MilestonePaid",
      "type": "event"
    },
    {
      "anonymous": false,
      "inputs": [
        {
          "indexed": true,
          "internalType": "uint256",
          "name": "campaignId",
          "type": "uint256"
        },
        {
          "indexed": true,
          "internalType": "uint256",
          "name": "milestoneId",
          "type": "uint256"
        },
        {
          "indexed": true,
          "internalType": "address",
          "name": "voter",
          "type": "address"
        },
        {
          "indexed": false,
          "internalType": "bool",
          "name": "support",
          "type": "bool"
        },
        {
          "indexed": false,
          "internalType": "uint256",
          "name": "weight",
          "type": "uint256"
        }
      ],
      "name": "MilestoneVoted",
      "type": "event"
    },
    {
      "anonymous": false,
      "inputs": [
        {
          "indexed": true,
          "internalType": "uint256",
          "name": "campaignId",
          "type": "uint256"
        },
        {
          "indexed": true,
          "internalType": "uint256",
          "name": "milestoneId",
          "type": "uint256"
        },
        {
          "indexed": false,
          "internalType": "string",
          "name": "ipfsHash",
          "type": "string"
        }
      ],
      "name": "ProofSubmitted",
      "type": "event"
    },
    {
      "anonymous": false,
      "inputs": [
        {
          "indexed": true,
          "internalType": "uint256",
          "name": "campaignId",
          "type": "uint256"
        },
        {
          "indexed": true,
          "internalType": "address",
          "name": "donor",
          "type": "address"
        },
        {
          "indexed": false,
          "internalType": "uint256",
          "name": "amount",
          "type": "uint256"
        }
      ],
      "name": "Refunded",
      "type": "event"
    },
    {
      "inputs": [],
      "name": "VOTING_WINDOW",
      "outputs": [
        {
          "internalType": "uint256",
          "name": "",
          "type": "uint256"
        }
      ],
      "stateMutability": "view",
      "type": "function"
    },
    {
      "inputs": [
        {
          "internalType": "uint256",
          "name": "",
          "type": "uint256"
        }
      ],
      "name": "campaigns",
      "outputs": [
        {
          "internalType": "address",
          "name": "owner",
          "type": "address"
        },
        {
          "internalType": "string",
          "name": "title",
          "type": "string"
        },
        {
          "internalType": "string",
          "name": "description",
          "type": "string"
        },
        {
          "internalType": "uint256",
          "name": "target",
          "type": "uint256"
        },
        {
          "internalType": "uint256",
          "name": "deadline",
          "type": "uint256"
        },
        {
          "internalType": "uint256",
          "name": "amountCollected",
          "type": "uint256"
        },
        {
          "internalType": "uint256",
          "name": "nextMilestoneToPay",
          "type": "uint256"
        },
        {
          "internalType": "enum CrowdFunding.CampaignStatus",
          "name": "status",
          "type": "uint8"
        }
      ],
      "stateMutability": "view",
      "type": "function"
    },
    {
      "inputs": [
        {
          "internalType": "uint256",
          "name": "_campaignId",
          "type": "uint256"
        }
      ],
      "name": "cancelCampaign",
      "outputs": [],
      "stateMutability": "nonpayable",
      "type": "function"
    },
    {
      "inputs": [
        {
          "internalType": "uint256",
          "name": "",
          "type": "uint256"
        },
        {
          "internalType": "address",
          "name": "",
          "type": "address"
        }
      ],
      "name": "contributionOf",
      "outputs": [
        {
          "internalType": "uint256",
          "name": "",
          "type": "uint256"
        }
      ],
      "stateMutability": "view",
      "type": "function"
    },
    {
      "inputs": [
        {
          "internalType": "address",
          "name": "_owner",
          "type": "address"
        },
        {
          "internalType": "string",
          "name": "_title",
          "type": "string"
        },
        {
          "internalType": "string",
          "name": "_description",
          "type": "string"
        },
        {
          "internalType": "uint256",
          "name": "_target",
          "type": "uint256"
        },
        {
          "internalType": "uint256",
          "name": "_deadline",
          "type": "uint256"
        },
        {
          "internalType": "string[]",
          "name": "_milestoneDescriptions",
          "type": "string[]"
        },
        {
          "internalType": "uint256[]",
          "name": "_milestoneAmounts",
          "type": "uint256[]"
        }
      ],
      "name": "createCampaign",
      "outputs": [
        {
          "internalType": "uint256",
          "name": "",
          "type": "uint256"
        }
      ],
      "stateMutability": "nonpayable",
      "type": "function"
    },
    {
      "inputs": [
        {
          "internalType": "uint256",
          "name": "_campaignId",
          "type": "uint256"
        }
      ],
      "name": "donateToCampaign",
      "outputs": [],
      "stateMutability": "payable",
      "type": "function"
    },
    {
      "inputs": [
        {
          "internalType": "uint256",
          "name": "_campaignId",
          "type": "uint256"
        }
      ],
      "name": "finalizeCampaign",
      "outputs": [],
      "stateMutability": "nonpayable",
      "type": "function"
    },
    {
      "inputs": [
        {
          "internalType": "uint256",
          "name": "_campaignId",
          "type": "uint256"
        }
      ],
      "name": "getCampaignBalance",
      "outputs": [
        {
          "internalType": "uint256",
          "name": "",
          "type": "uint256"
        }
      ],
      "stateMutability": "view",
      "type": "function"
    },
    {
      "inputs": [],
      "name": "getContractBalance",
      "outputs": [
        {
          "internalType": "uint256",
          "name": "",
          "type": "uint256"
        }
      ],
      "stateMutability": "view",
      "type": "function"
    },
    {
      "inputs": [
        {
          "internalType": "uint256",
          "name": "_campaignId",
          "type": "uint256"
        },
        {
          "internalType": "uint256",
          "name": "_milestoneId",
          "type": "uint256"
        }
      ],
      "name": "getMilestone",
      "outputs": [
        {
          "internalType": "string",
          "name": "description",
          "type": "string"
        },
        {
          "internalType": "uint256",
          "name": "amount",
          "type": "uint256"
        },
        {
          "internalType": "string",
          "name": "proofHash",
          "type": "string"
        },
        {
          "internalType": "bool",
          "name": "proofSubmitted",
          "type": "bool"
        },
        {
          "internalType": "bool",
          "name": "approved",
          "type": "bool"
        },
        {
          "internalType": "bool",
          "name": "paid",
          "type": "bool"
        },
        {
          "internalType": "uint256",
          "name": "votesFor",
          "type": "uint256"
        },
        {
          "internalType": "uint256",
          "name": "votesAgainst",
          "type": "uint256"
        },
        {
          "internalType": "uint256",
          "name": "votingDeadline",
          "type": "uint256"
        }
      ],
      "stateMutability": "view",
      "type": "function"
    },
    {
      "inputs": [
        {
          "internalType": "uint256",
          "name": "",
          "type": "uint256"
        },
        {
          "internalType": "uint256",
          "name": "",
          "type": "uint256"
        },
        {
          "internalType": "address",
          "name": "",
          "type": "address"
        }
      ],
      "name": "hasVoted",
      "outputs": [
        {
          "internalType": "bool",
          "name": "",
          "type": "bool"
        }
      ],
      "stateMutability": "view",
      "type": "function"
    },
    {
      "inputs": [
        {
          "internalType": "uint256",
          "name": "",
          "type": "uint256"
        },
        {
          "internalType": "address",
          "name": "",
          "type": "address"
        }
      ],
      "name": "isDonator",
      "outputs": [
        {
          "internalType": "bool",
          "name": "",
          "type": "bool"
        }
      ],
      "stateMutability": "view",
      "type": "function"
    },
    {
      "inputs": [],
      "name": "numberOfCampaigns",
      "outputs": [
        {
          "internalType": "uint256",
          "name": "",
          "type": "uint256"
        }
      ],
      "stateMutability": "view",
      "type": "function"
    },
    {
      "inputs": [
        {
          "internalType": "uint256",
          "name": "_campaignId",
          "type": "uint256"
        }
      ],
      "name": "requestRefund",
      "outputs": [],
      "stateMutability": "nonpayable",
      "type": "function"
    },
    {
      "inputs": [
        {
          "internalType": "uint256",
          "name": "_campaignId",
          "type": "uint256"
        },
        {
          "internalType": "uint256",
          "name": "_milestoneId",
          "type": "uint256"
        },
        {
          "internalType": "string",
          "name": "_ipfsHash",
          "type": "string"
        }
      ],
      "name": "submitMilestoneProof",
      "outputs": [],
      "stateMutability": "nonpayable",
      "type": "function"
    },
    {
      "inputs": [
        {
          "internalType": "uint256",
          "name": "_campaignId",
          "type": "uint256"
        },
        {
          "internalType": "uint256",
          "name": "_milestoneId",
          "type": "uint256"
        },
        {
          "internalType": "bool",
          "name": "_support",
          "type": "bool"
        }
      ],
      "name": "voteOnMilestone",
      "outputs": [],
      "stateMutability": "nonpayable",
      "type": "function"
    },
    {
      "inputs": [
        {
          "internalType": "uint256",
          "name": "_campaignId",
          "type": "uint256"
        },
        {
          "internalType": "uint256",
          "name": "_milestoneId",
          "type": "uint256"
        }
      ],
      "name": "withdrawMilestone",
      "outputs": [],
      "stateMutability": "nonpayable",
      "type": "function"
    }
  ],
  "bytecode": "0x6080604052600060015534801561001557600080fd5b506147ed806100256000396000f3fe6080604052600436106100fe5760003560e01c80636b5ca27d116100955780638f3a1766116100645780638f3a17661461035b5780639f791e5f14610398578063a4b2409e146103c1578063bd87783b146103ea578063eb044b9714610413576100fe565b80636b5ca27d146102855780636f9fb98a146102ae578063758f2b29146102d95780638ed9895c14610316576100fe565b80633173cd26116100d15780633173cd26146101d857806342a4fda81461020357806345598b4a1461021f5780636813947f14610248576100fe565b806307ca140d146101035780630d39a1d31461012e5780630e783d6d1461016b578063141961bc14610194575b600080fd5b34801561010f57600080fd5b50610118610450565b6040516101259190612912565b60405180910390f35b34801561013a57600080fd5b50610155600480360381019061015091906129cb565b610456565b6040516101629190612a39565b60405180910390f35b34801561017757600080fd5b50610192600480360381019061018d9190612a80565b610492565b005b3480156101a057600080fd5b506101bb60048036038101906101b69190612ad3565b610b65565b6040516101cf989796959493929190612c16565b60405180910390f35b3480156101e457600080fd5b506101ed610cea565b6040516101fa9190612912565b60405180910390f35b61021d60048036038101906102189190612ad3565b610cf1565b005b34801561022b57600080fd5b5061024660048036038101906102419190612ad3565b61107e565b005b34801561025457600080fd5b5061026f600480360381019061026a9190612ca2565b611287565b60405161027c9190612912565b60405180910390f35b34801561029157600080fd5b506102ac60048036038101906102a79190612ad3565b6112ac565b005b3480156102ba57600080fd5b506102c3611481565b6040516102d09190612912565b60405180910390f35b3480156102e557600080fd5b5061030060048036038101906102fb9190612fc0565b611489565b60405161030d9190612912565b60405180910390f35b34801561032257600080fd5b5061033d600480360381019061033891906130d2565b611958565b60405161035299989796959493929190613112565b60405180910390f35b34801561036757600080fd5b50610382600480360381019061037d9190612ca2565b611b56565b60405161038f9190612a39565b60405180910390f35b3480156103a457600080fd5b506103bf60048036038101906103ba91906131ad565b611b85565b005b3480156103cd57600080fd5b506103e860048036038101906103e39190612ad3565b611f58565b005b3480156103f657600080fd5b50610411600480360381019061040c91906130d2565b61241b565b005b34801561041f57600080fd5b5061043a60048036038101906104359190612ad3565b612832565b6040516104479190612912565b60405180910390f35b60015481565b6004602052826000526040600020602052816000526040600020602052806000526040600020600092509250509054906101000a900460ff1681565b60015483106104d6576040517f08c379a00000000000000000000000000000000000000000000000000000000081526004016104cd90613268565b60405180910390fd5b600080600085815260200190815260200160002090508060040154421015610533576040517f08c379a000000000000000000000000000000000000000000000000000000000815260040161052a906132d4565b60405180910390fd5b6000600381111561054757610546612b9f565b5b81600a0160009054906101000a900460ff16600381111561056b5761056a612b9f565b5b036106295780600301548160050154106105b157600181600a0160006101000a81548160ff021916908360038111156105a7576105a6612b9f565b5b02179055506105df565b600281600a0160006101000a81548160ff021916908360038111156105d9576105d8612b9f565b5b02179055505b837ffbdbee1007296104d763605c2eb31f467b3e4cc929953ced44b039a074178b0982600a0160009054906101000a900460ff1660405161062091906132f4565b60405180910390a25b80600801805490508310610672576040517f08c379a00000000000000000000000000000000000000000000000000000000081526004016106699061335b565b60405180910390fd5b6001600381111561068657610685612b9f565b5b81600a0160009054906101000a900460ff1660038111156106aa576106a9612b9f565b5b146106ea576040517f08c379a00000000000000000000000000000000000000000000000000000000081526004016106e1906133c7565b60405180910390fd5b6000816008018481548110610702576107016133e7565b5b906000526020600020906007020190508060030160009054906101000a900460ff16610763576040517f08c379a000000000000000000000000000000000000000000000000000000000815260040161075a90613488565b60405180910390fd5b62093a80816006015461077691906134d7565b4211156107b8576040517f08c379a00000000000000000000000000000000000000000000000000000000081526004016107af90613557565b60405180910390fd5b8060030160019054906101000a900460ff161561080a576040517f08c379a0000000000000000000000000000000000000000000000000000000008152600401610801906135c3565b60405180910390fd5b8060030160029054906101000a900460ff161561085c576040517f08c379a00000000000000000000000000000000000000000000000000000000081526004016108539061362f565b60405180910390fd5b60006002600087815260200190815260200160002060003373ffffffffffffffffffffffffffffffffffffffff1673ffffffffffffffffffffffffffffffffffffffff168152602001908152602001600020549050600081116108f4576040517f08c379a00000000000000000000000000000000000000000000000000000000081526004016108eb9061369b565b60405180910390fd5b60046000878152602001908152602001600020600086815260200190815260200160002060003373ffffffffffffffffffffffffffffffffffffffff1673ffffffffffffffffffffffffffffffffffffffff16815260200190815260200160002060009054906101000a900460ff16156109a3576040517f08c379a000000000000000000000000000000000000000000000000000000000815260040161099a90613707565b60405180910390fd5b600160046000888152602001908152602001600020600087815260200190815260200160002060003373ffffffffffffffffffffffffffffffffffffffff1673ffffffffffffffffffffffffffffffffffffffff16815260200190815260200160002060006101000a81548160ff0219169083151502179055508315610a435780826004016000828254610a3791906134d7565b92505081905550610a5f565b80826005016000828254610a5791906134d7565b925050819055505b3373ffffffffffffffffffffffffffffffffffffffff1685877fc4034c86715a9b37c41bd89fdabb308d4cc0f2aca4a22eb6b311492fefdad7438785604051610aa9929190613727565b60405180910390a4600082600501548360040154610ac791906134d7565b905060028460050154610ada919061377f565b8110158015610af0575082600501548360040154115b8015610b0b57508260030160019054906101000a900460ff16155b15610b5c5760018360030160016101000a81548160ff02191690831515021790555085877f939da3b627c123c81fe5aacebf925163337a0d4f8a03724640618078cad2489460405160405180910390a35b50505050505050565b60006020528060005260406000206000915090508060000160009054906101000a900473ffffffffffffffffffffffffffffffffffffffff1690806001018054610bae906137df565b80601f0160208091040260200160405190810160405280929190818152602001828054610bda906137df565b8015610c275780601f10610bfc57610100808354040283529160200191610c27565b820191906000526020600020905b815481529060010190602001808311610c0a57829003601f168201915b505050505090806002018054610c3c906137df565b80601f0160208091040260200160405190810160405280929190818152602001828054610c68906137df565b8015610cb55780601f10610c8a57610100808354040283529160200191610cb5565b820191906000526020600020905b815481529060010190602001808311610c9857829003601f168201915b50505050509080600301549080600401549080600501549080600901549080600a0160009054906101000a900460ff16905088565b62093a8081565b6001548110610d35576040517f08c379a0000000000000000000000000000000000000000000000000000000008152600401610d2c90613268565b60405180910390fd5b6000806000838152602001908152602001600020905060003411610d8e576040517f08c379a0000000000000000000000000000000000000000000000000000000008152600401610d8590613882565b60405180910390fd5b80600401544210610dd4576040517f08c379a0000000000000000000000000000000000000000000000000000000008152600401610dcb906138ee565b60405180910390fd5b60006003811115610de857610de7612b9f565b5b81600a0160009054906101000a900460ff166003811115610e0c57610e0b612b9f565b5b14610e4c576040517f08c379a0000000000000000000000000000000000000000000000000000000008152600401610e439061395a565b60405180910390fd5b6003600083815260200190815260200160002060003373ffffffffffffffffffffffffffffffffffffffff1673ffffffffffffffffffffffffffffffffffffffff16815260200190815260200160002060009054906101000a900460ff16610fa95760016003600084815260200190815260200160002060003373ffffffffffffffffffffffffffffffffffffffff1673ffffffffffffffffffffffffffffffffffffffff16815260200190815260200160002060006101000a81548160ff02191690831515021790555080600601339080600181540180825580915050600190039060005260206000200160009091909190916101000a81548173ffffffffffffffffffffffffffffffffffffffff021916908373ffffffffffffffffffffffffffffffffffffffff16021790555080600701600090806001815401808255809150506001900390600052602060002001600090919091909150555b346002600084815260200190815260200160002060003373ffffffffffffffffffffffffffffffffffffffff1673ffffffffffffffffffffffffffffffffffffffff168152602001908152602001600020600082825461100991906134d7565b925050819055503481600501600082825461102491906134d7565b925050819055503373ffffffffffffffffffffffffffffffffffffffff16827f0b5b4c52969ff7329ecf7ee536409fda87812b15a8622bc6e8cdeab3aee14a26346040516110729190612912565b60405180910390a35050565b60015481106110c2576040517f08c379a00000000000000000000000000000000000000000000000000000000081526004016110b990613268565b60405180910390fd5b600080600083815260200190815260200160002090508060000160009054906101000a900473ffffffffffffffffffffffffffffffffffffffff1673ffffffffffffffffffffffffffffffffffffffff163373ffffffffffffffffffffffffffffffffffffffff161461116a576040517f08c379a0000000000000000000000000000000000000000000000000000000008152600401611161906139c6565b60405180910390fd5b6000600381111561117e5761117d612b9f565b5b81600a0160009054906101000a900460ff1660038111156111a2576111a1612b9f565b5b146111e2576040517f08c379a00000000000000000000000000000000000000000000000000000000081526004016111d990613a32565b60405180910390fd5b6000816005015414611229576040517f08c379a000000000000000000000000000000000000000000000000000000000815260040161122090613a9e565b60405180910390fd5b600381600a0160006101000a81548160ff0219169083600381111561125157611250612b9f565b5b0217905550817f403b6718db13878ac16c27decb08f09d3a10f116c7c25af575ff5bfbc11ae9e660405160405180910390a25050565b6002602052816000526040600020602052806000526040600020600091509150505481565b60015481106112f0576040517f08c379a00000000000000000000000000000000000000000000000000000000081526004016112e790613268565b60405180910390fd5b600080600083815260200190815260200160002090506000600381111561131a57611319612b9f565b5b81600a0160009054906101000a900460ff16600381111561133e5761133d612b9f565b5b1461137e576040517f08c379a000000000000000000000000000000000000000000000000000000000815260040161137590613b0a565b60405180910390fd5b80600401544210156113c5576040517f08c379a00000000000000000000000000000000000000000000000000000000081526004016113bc90613b76565b60405180910390fd5b806003015481600501541061140657600181600a0160006101000a81548160ff021916908360038111156113fc576113fb612b9f565b5b0217905550611434565b600281600a0160006101000a81548160ff0219169083600381111561142e5761142d612b9f565b5b02179055505b817ffbdbee1007296104d763605c2eb31f467b3e4cc929953ced44b039a074178b0982600a0160009054906101000a900460ff1660405161147591906132f4565b60405180910390a25050565b600047905090565b60008073ffffffffffffffffffffffffffffffffffffffff168873ffffffffffffffffffffffffffffffffffffffff16036114f9576040517f08c379a00000000000000000000000000000000000000000000000000000000081526004016114f090613be2565b60405180910390fd5b42841161153b576040517f08c379a000000000000000000000000000000000000000000000000000000000815260040161153290613c74565b60405180910390fd5b6000851161157e576040517f08c379a000000000000000000000000000000000000000000000000000000000815260040161157590613ce0565b60405180910390fd5b81518351146115c2576040517f08c379a00000000000000000000000000000000000000000000000000000000081526004016115b990613d4c565b60405180910390fd5b6000835111611606576040517f08c379a00000000000000000000000000000000000000000000000000000000081526004016115fd90613db8565b60405180910390fd5b600080600060015481526020019081526020016000209050888160000160006101000a81548173ffffffffffffffffffffffffffffffffffffffff021916908373ffffffffffffffffffffffffffffffffffffffff160217905550878160010190816116729190613f84565b50868160020190816116849190613f84565b508581600301819055508481600401819055506000816005018190555060008160090181905550600081600a0160006101000a81548160ff021916908360038111156116d3576116d2612b9f565b5b02179055506000805b85518110156118935782600801604051806101200160405280888481518110611708576117076133e7565b5b60200260200101518152602001878481518110611728576117276133e7565b5b6020026020010151815260200160405180602001604052806000815250815260200160001515815260200160001515815260200160001515815260200160008152602001600081526020016000815250908060018154018082558091505060019003906000526020600020906007020160009091909190915060008201518160000190816117b69190613f84565b506020820151816001015560408201518160020190816117d69190613f84565b5060608201518160030160006101000a81548160ff02191690831515021790555060808201518160030160016101000a81548160ff02191690831515021790555060a08201518160030160026101000a81548160ff02191690831515021790555060c0820151816004015560e082015181600501556101008201518160060155505084818151811061186b5761186a6133e7565b5b60200260200101518261187e91906134d7565b9150808061188b90614056565b9150506116dc565b50868111156118d7576040517f08c379a00000000000000000000000000000000000000000000000000000000081526004016118ce906140ea565b60405180910390fd5b60006001549050600160008154809291906118f190614056565b91905055508a73ffffffffffffffffffffffffffffffffffffffff16817f91b289a829e71d811b8c69e4a24ba2d40d115d8a236e9a724cb3bb2d43cf72238a8a60405161193f92919061410a565b60405180910390a3809350505050979650505050505050565b60606000606060008060008060008060008060008d81526020019081526020016000206008018b815481106119905761198f6133e7565b5b90600052602060002090600702019050806000018160010154826002018360030160009054906101000a900460ff168460030160019054906101000a900460ff168560030160029054906101000a900460ff16866004015487600501548860030160009054906101000a900460ff16611a0a576000611a1e565b62093a808960060154611a1d91906134d7565b5b888054611a2a906137df565b80601f0160208091040260200160405190810160405280929190818152602001828054611a56906137df565b8015611aa35780601f10611a7857610100808354040283529160200191611aa3565b820191906000526020600020905b815481529060010190602001808311611a8657829003601f168201915b50505050509850868054611ab6906137df565b80601f0160208091040260200160405190810160405280929190818152602001828054611ae2906137df565b8015611b2f5780601f10611b0457610100808354040283529160200191611b2f565b820191906000526020600020905b815481529060010190602001808311611b1257829003601f168201915b50505050509650995099509950995099509950995099509950509295985092959850929598565b60036020528160005260406000206020528060005260406000206000915091509054906101000a900460ff1681565b6001548310611bc9576040517f08c379a0000000000000000000000000000000000000000000000000000000008152600401611bc090613268565b60405180910390fd5b600080600085815260200190815260200160002090508060000160009054906101000a900473ffffffffffffffffffffffffffffffffffffffff1673ffffffffffffffffffffffffffffffffffffffff163373ffffffffffffffffffffffffffffffffffffffff1614611c71576040517f08c379a0000000000000000000000000000000000000000000000000000000008152600401611c689061417f565b60405180910390fd5b60016003811115611c8557611c84612b9f565b5b81600a0160009054906101000a900460ff166003811115611ca957611ca8612b9f565b5b14611ce9576040517f08c379a0000000000000000000000000000000000000000000000000000000008152600401611ce0906133c7565b60405180910390fd5b80600801805490508310611d32576040517f08c379a0000000000000000000000000000000000000000000000000000000008152600401611d299061335b565b60405180910390fd5b6000816008018481548110611d4a57611d496133e7565b5b906000526020600020906007020190508060030160009054906101000a900460ff1615611dac576040517f08c379a0000000000000000000000000000000000000000000000000000000008152600401611da3906141eb565b60405180910390fd5b8060030160019054906101000a900460ff1615611dfe576040517f08c379a0000000000000000000000000000000000000000000000000000000008152600401611df5906135c3565b60405180910390fd5b8060030160029054906101000a900460ff1615611e50576040517f08c379a0000000000000000000000000000000000000000000000000000000008152600401611e479061362f565b60405180910390fd5b81600901548414611e96576040517f08c379a0000000000000000000000000000000000000000000000000000000008152600401611e8d90614257565b60405180910390fd5b60008390506000815111611edf576040517f08c379a0000000000000000000000000000000000000000000000000000000008152600401611ed6906142c3565b60405180910390fd5b83826002019081611ef09190613f84565b5060018260030160006101000a81548160ff02191690831515021790555042826006018190555084867fa0369f36b2a8975ad69f1e8b8de8b56312cbcfe25149ce1e43f83d5e612f451b86604051611f4891906142e3565b60405180910390a3505050505050565b600560009054906101000a900460ff1615611fa8576040517f08c379a0000000000000000000000000000000000000000000000000000000008152600401611f9f90614351565b60405180910390fd5b6001600560006101000a81548160ff0219169083151502179055506001548110612007576040517f08c379a0000000000000000000000000000000000000000000000000000000008152600401611ffe90613268565b60405180910390fd5b600080600083815260200190815260200160002090506000600381111561203157612030612b9f565b5b81600a0160009054906101000a900460ff16600381111561205557612054612b9f565b5b0361215a5780600401544210156120a1576040517f08c379a0000000000000000000000000000000000000000000000000000000008152600401612098906143bd565b60405180910390fd5b80600301548160050154106120e257600181600a0160006101000a81548160ff021916908360038111156120d8576120d7612b9f565b5b0217905550612110565b600281600a0160006101000a81548160ff0219169083600381111561210a57612109612b9f565b5b02179055505b817ffbdbee1007296104d763605c2eb31f467b3e4cc929953ced44b039a074178b0982600a0160009054906101000a900460ff1660405161215191906132f4565b60405180910390a25b6002600381111561216e5761216d612b9f565b5b81600a0160009054906101000a900460ff16600381111561219257612191612b9f565b5b14806121d257506003808111156121ac576121ab612b9f565b5b81600a0160009054906101000a900460ff1660038111156121d0576121cf612b9f565b5b145b612211576040517f08c379a000000000000000000000000000000000000000000000000000000000815260040161220890614429565b60405180910390fd5b60006002600084815260200190815260200160002060003373ffffffffffffffffffffffffffffffffffffffff1673ffffffffffffffffffffffffffffffffffffffff168152602001908152602001600020549050600081116122a9576040517f08c379a00000000000000000000000000000000000000000000000000000000081526004016122a090614495565b60405180910390fd5b60006002600085815260200190815260200160002060003373ffffffffffffffffffffffffffffffffffffffff1673ffffffffffffffffffffffffffffffffffffffff1681526020019081526020016000208190555060003373ffffffffffffffffffffffffffffffffffffffff1682604051612325906144e6565b60006040518083038185875af1925050503d8060008114612362576040519150601f19603f3d011682016040523d82523d6000602084013e612367565b606091505b50509050806123ab576040517f08c379a00000000000000000000000000000000000000000000000000000000081526004016123a290614547565b60405180910390fd5b3373ffffffffffffffffffffffffffffffffffffffff16847f7ca5472b7ea78c2c0141c5a12ee6d170cf4ce8ed06be3d22c8252ddfc7a6a2c4846040516123f29190612912565b60405180910390a35050506000600560006101000a81548160ff02191690831515021790555050565b600560009054906101000a900460ff161561246b576040517f08c379a000000000000000000000000000000000000000000000000000000000815260040161246290614351565b60405180910390fd5b6001600560006101000a81548160ff02191690831515021790555060015482106124ca576040517f08c379a00000000000000000000000000000000000000000000000000000000081526004016124c190613268565b60405180910390fd5b600080600084815260200190815260200160002090508060000160009054906101000a900473ffffffffffffffffffffffffffffffffffffffff1673ffffffffffffffffffffffffffffffffffffffff163373ffffffffffffffffffffffffffffffffffffffff1614612572576040517f08c379a0000000000000000000000000000000000000000000000000000000008152600401612569906145b3565b60405180910390fd5b806008018054905082106125bb576040517f08c379a00000000000000000000000000000000000000000000000000000000081526004016125b29061335b565b60405180910390fd5b60008160080183815481106125d3576125d26133e7565b5b906000526020600020906007020190508060030160019054906101000a900460ff16612634576040517f08c379a000000000000000000000000000000000000000000000000000000000815260040161262b9061461f565b60405180910390fd5b8060030160029054906101000a900460ff1615612686576040517f08c379a000000000000000000000000000000000000000000000000000000000815260040161267d9061468b565b60405180910390fd5b80600101544710156126cd576040517f08c379a00000000000000000000000000000000000000000000000000000000081526004016126c4906146f7565b60405180910390fd5b60018160030160026101000a81548160ff0219169083151502179055506001836126f791906134d7565b826009018190555060008260000160009054906101000a900473ffffffffffffffffffffffffffffffffffffffff1673ffffffffffffffffffffffffffffffffffffffff16826001015460405161274d906144e6565b60006040518083038185875af1925050503d806000811461278a576040519150601f19603f3d011682016040523d82523d6000602084013e61278f565b606091505b50509050806127d3576040517f08c379a00000000000000000000000000000000000000000000000000000000081526004016127ca90614763565b60405180910390fd5b83857fafc8fc5dd6037bf38d34d9d51bb5ecc0af143248332c63ae9e83bbef6d4638d984600101546040516128089190612912565b60405180910390a35050506000600560006101000a81548160ff0219169083151502179055505050565b60008060008084815260200190815260200160002090506000805b82600801805490508110156128df57826008018181548110612872576128716133e7565b5b906000526020600020906007020160030160029054906101000a900460ff16156128cc578260080181815481106128ac576128ab6133e7565b5b906000526020600020906007020160010154826128c991906134d7565b91505b80806128d790614056565b91505061284d565b508082600501546128f09190614783565b92505050919050565b6000819050919050565b61290c816128f9565b82525050565b60006020820190506129276000830184612903565b92915050565b6000604051905090565b600080fd5b600080fd5b61294a816128f9565b811461295557600080fd5b50565b60008135905061296781612941565b92915050565b600073ffffffffffffffffffffffffffffffffffffffff82169050919050565b60006129988261296d565b9050919050565b6129a88161298d565b81146129b357600080fd5b50565b6000813590506129c58161299f565b92915050565b6000806000606084860312156129e4576129e3612937565b5b60006129f286828701612958565b9350506020612a0386828701612958565b9250506040612a14868287016129b6565b9150509250925092565b60008115159050919050565b612a3381612a1e565b82525050565b6000602082019050612a4e6000830184612a2a565b92915050565b612a5d81612a1e565b8114612a6857600080fd5b50565b600081359050612a7a81612a54565b92915050565b600080600060608486031215612a9957612a98612937565b5b6000612aa786828701612958565b9350506020612ab886828701612958565b9250506040612ac986828701612a6b565b9150509250925092565b600060208284031215612ae957612ae8612937565b5b6000612af784828501612958565b91505092915050565b612b098161298d565b82525050565b600081519050919050565b600082825260208201905092915050565b60005b83811015612b49578082015181840152602081019050612b2e565b60008484015250505050565b6000601f19601f8301169050919050565b6000612b7182612b0f565b612b7b8185612b1a565b9350612b8b818560208601612b2b565b612b9481612b55565b840191505092915050565b7f4e487b7100000000000000000000000000000000000000000000000000000000600052602160045260246000fd5b60048110612bdf57612bde612b9f565b5b50565b6000819050612bf082612bce565b919050565b6000612c0082612be2565b9050919050565b612c1081612bf5565b82525050565b600061010082019050612c2c600083018b612b00565b8181036020830152612c3e818a612b66565b90508181036040830152612c528189612b66565b9050612c616060830188612903565b612c6e6080830187612903565b612c7b60a0830186612903565b612c8860c0830185612903565b612c9560e0830184612c07565b9998505050505050505050565b60008060408385031215612cb957612cb8612937565b5b6000612cc785828601612958565b9250506020612cd8858286016129b6565b9150509250929050565b600080fd5b600080fd5b7f4e487b7100000000000000000000000000000000000000000000000000000000600052604160045260246000fd5b612d2482612b55565b810181811067ffffffffffffffff82111715612d4357612d42612cec565b5b80604052505050565b6000612d5661292d565b9050612d628282612d1b565b919050565b600067ffffffffffffffff821115612d8257612d81612cec565b5b612d8b82612b55565b9050602081019050919050565b82818337600083830152505050565b6000612dba612db584612d67565b612d4c565b905082815260208101848484011115612dd657612dd5612ce7565b5b612de1848285612d98565b509392505050565b600082601f830112612dfe57612dfd612ce2565b5b8135612e0e848260208601612da7565b91505092915050565b600067ffffffffffffffff821115612e3257612e31612cec565b5b602082029050602081019050919050565b600080fd5b6000612e5b612e5684612e17565b612d4c565b90508083825260208201905060208402830185811115612e7e57612e7d612e43565b5b835b81811015612ec557803567ffffffffffffffff811115612ea357612ea2612ce2565b5b808601612eb08982612de9565b85526020850194505050602081019050612e80565b5050509392505050565b600082601f830112612ee457612ee3612ce2565b5b8135612ef4848260208601612e48565b91505092915050565b600067ffffffffffffffff821115612f1857612f17612cec565b5b602082029050602081019050919050565b6000612f3c612f3784612efd565b612d4c565b90508083825260208201905060208402830185811115612f5f57612f5e612e43565b5b835b81811015612f885780612f748882612958565b845260208401935050602081019050612f61565b5050509392505050565b600082601f830112612fa757612fa6612ce2565b5b8135612fb7848260208601612f29565b91505092915050565b600080600080600080600060e0888a031215612fdf57612fde612937565b5b6000612fed8a828b016129b6565b975050602088013567ffffffffffffffff81111561300e5761300d61293c565b5b61301a8a828b01612de9565b965050604088013567ffffffffffffffff81111561303b5761303a61293c565b5b6130478a828b01612de9565b95505060606130588a828b01612958565b94505060806130698a828b01612958565b93505060a088013567ffffffffffffffff81111561308a5761308961293c565b5b6130968a828b01612ecf565b92505060c088013567ffffffffffffffff8111156130b7576130b661293c565b5b6130c38a828b01612f92565b91505092959891949750929550565b600080604083850312156130e9576130e8612937565b5b60006130f785828601612958565b925050602061310885828601612958565b9150509250929050565b600061012082019050818103600083015261312d818c612b66565b905061313c602083018b612903565b818103604083015261314e818a612b66565b905061315d6060830189612a2a565b61316a6080830188612a2a565b61317760a0830187612a2a565b61318460c0830186612903565b61319160e0830185612903565b61319f610100830184612903565b9a9950505050505050505050565b6000806000606084860312156131c6576131c5612937565b5b60006131d486828701612958565b93505060206131e586828701612958565b925050604084013567ffffffffffffffff8111156132065761320561293c565b5b61321286828701612de9565b9150509250925092565b7f43616d706169676e20646f6573206e6f74206578697374000000000000000000600082015250565b6000613252601783612b1a565b915061325d8261321c565b602082019050919050565b6000602082019050818103600083015261328181613245565b9050919050565b7f5761697420666f7220646561646c696e65000000000000000000000000000000600082015250565b60006132be601183612b1a565b91506132c982613288565b602082019050919050565b600060208201905081810360008301526132ed816132b1565b9050919050565b60006020820190506133096000830184612c07565b92915050565b7f496e76616c6964206d696c6573746f6e65000000000000000000000000000000600082015250565b6000613345601183612b1a565b91506133508261330f565b602082019050919050565b6000602082019050818103600083015261337481613338565b9050919050565b7f43616d706169676e206e6f74207375636365737366756c000000000000000000600082015250565b60006133b1601783612b1a565b91506133bc8261337b565b602082019050919050565b600060208201905081810360008301526133e0816133a4565b9050919050565b7f4e487b7100000000000000000000000000000000000000000000000000000000600052603260045260246000fd5b7f4f776e657220686173206e6f74207375626d69747465642070726f6f6620796560008201527f7400000000000000000000000000000000000000000000000000000000000000602082015250565b6000613472602183612b1a565b915061347d82613416565b604082019050919050565b600060208201905081810360008301526134a181613465565b9050919050565b7f4e487b7100000000000000000000000000000000000000000000000000000000600052601160045260246000fd5b60006134e2826128f9565b91506134ed836128f9565b9250828201905080821115613505576135046134a8565b5b92915050565b7f566f74696e672077696e646f772068617320636c6f7365640000000000000000600082015250565b6000613541601883612b1a565b915061354c8261350b565b602082019050919050565b6000602082019050818103600083015261357081613534565b9050919050565b7f4d696c6573746f6e6520616c726561647920617070726f766564000000000000600082015250565b60006135ad601a83612b1a565b91506135b882613577565b602082019050919050565b600060208201905081810360008301526135dc816135a0565b9050919050565b7f4d696c6573746f6e6520616c7265616479207061696400000000000000000000600082015250565b6000613619601683612b1a565b9150613624826135e3565b602082019050919050565b600060208201905081810360008301526136488161360c565b9050919050565b7f4d757374206265206120636f6e7472696275746f7220746f20766f7465000000600082015250565b6000613685601d83612b1a565b91506136908261364f565b602082019050919050565b600060208201905081810360008301526136b481613678565b9050919050565b7f416c726561647920766f74656400000000000000000000000000000000000000600082015250565b60006136f1600d83612b1a565b91506136fc826136bb565b602082019050919050565b60006020820190508181036000830152613720816136e4565b9050919050565b600060408201905061373c6000830185612a2a565b6137496020830184612903565b9392505050565b7f4e487b7100000000000000000000000000000000000000000000000000000000600052601260045260246000fd5b600061378a826128f9565b9150613795836128f9565b9250826137a5576137a4613750565b5b828204905092915050565b7f4e487b7100000000000000000000000000000000000000000000000000000000600052602260045260246000fd5b600060028204905060018216806137f757607f821691505b60208210810361380a576138096137b0565b5b50919050565b7f446f6e6174696f6e20616d6f756e74206d75737420626520677265617465722060008201527f7468616e20300000000000000000000000000000000000000000000000000000602082015250565b600061386c602683612b1a565b915061387782613810565b604082019050919050565b6000602082019050818103600083015261389b8161385f565b9050919050565b7f43616d706169676e20646561646c696e65206861732070617373656400000000600082015250565b60006138d8601c83612b1a565b91506138e3826138a2565b602082019050919050565b60006020820190508181036000830152613907816138cb565b9050919050565b7f43616d706169676e206973206e6f742061637469766500000000000000000000600082015250565b6000613944601683612b1a565b915061394f8261390e565b602082019050919050565b6000602082019050818103600083015261397381613937565b9050919050565b7f4f6e6c79206f776e65722063616e2063616e63656c0000000000000000000000600082015250565b60006139b0601583612b1a565b91506139bb8261397a565b602082019050919050565b600060208201905081810360008301526139df816139a3565b9050919050565b7f4e6f742061637469766500000000000000000000000000000000000000000000600082015250565b6000613a1c600a83612b1a565b9150613a27826139e6565b602082019050919050565b60006020820190508181036000830152613a4b81613a0f565b9050919050565b7f416c72656164792046756e646564000000000000000000000000000000000000600082015250565b6000613a88600e83612b1a565b9150613a9382613a52565b602082019050919050565b60006020820190508181036000830152613ab781613a7b565b9050919050565b7f416c72656164792046696e616c697a6564000000000000000000000000000000600082015250565b6000613af4601183612b1a565b9150613aff82613abe565b602082019050919050565b60006020820190508181036000830152613b2381613ae7565b9050919050565b7f446561646c696e65206e6f742072656163686564207965740000000000000000600082015250565b6000613b60601883612b1a565b9150613b6b82613b2a565b602082019050919050565b60006020820190508181036000830152613b8f81613b53565b9050919050565b7f496e76616c6964206f776e657200000000000000000000000000000000000000600082015250565b6000613bcc600d83612b1a565b9150613bd782613b96565b602082019050919050565b60006020820190508181036000830152613bfb81613bbf565b9050919050565b7f54686520646561646c696e65206d7573742062652061206461746520696e207460008201527f6865206675747572652e00000000000000000000000000000000000000000000602082015250565b6000613c5e602a83612b1a565b9150613c6982613c02565b604082019050919050565b60006020820190508181036000830152613c8d81613c51565b9050919050565b7f546172676574206d7573742062652067726561746572207468616e2030000000600082015250565b6000613cca601d83612b1a565b9150613cd582613c94565b602082019050919050565b60006020820190508181036000830152613cf981613cbd565b9050919050565b7f4d696c6573746f6e6520636f756e7473206d757374206d617463680000000000600082015250565b6000613d36601b83612b1a565b9150613d4182613d00565b602082019050919050565b60006020820190508181036000830152613d6581613d29565b9050919050565b7f4e6f204d696c6573746f6e657300000000000000000000000000000000000000600082015250565b6000613da2600d83612b1a565b9150613dad82613d6c565b602082019050919050565b60006020820190508181036000830152613dd181613d95565b9050919050565b60008190508160005260206000209050919050565b60006020601f8301049050919050565b600082821b905092915050565b600060088302613e3a7fffffffffffffffffffffffffffffffffffffffffffffffffffffffffffffffff82613dfd565b613e448683613dfd565b95508019841693508086168417925050509392505050565b6000819050919050565b6000613e81613e7c613e77846128f9565b613e5c565b6128f9565b9050919050565b6000819050919050565b613e9b83613e66565b613eaf613ea782613e88565b848454613e0a565b825550505050565b600090565b613ec4613eb7565b613ecf818484613e92565b505050565b5b81811015613ef357613ee8600082613ebc565b600181019050613ed5565b5050565b601f821115613f3857613f0981613dd8565b613f1284613ded565b81016020851015613f21578190505b613f35613f2d85613ded565b830182613ed4565b50505b505050565b600082821c905092915050565b6000613f5b60001984600802613f3d565b1980831691505092915050565b6000613f748383613f4a565b9150826002028217905092915050565b613f8d82612b0f565b67ffffffffffffffff811115613fa657613fa5612cec565b5b613fb082546137df565b613fbb828285613ef7565b600060209050601f831160018114613fee5760008415613fdc578287015190505b613fe68582613f68565b86555061404e565b601f198416613ffc86613dd8565b60005b8281101561402457848901518255600182019150602085019450602081019050613fff565b86831015614041578489015161403d601f891682613f4a565b8355505b6001600288020188555050505b505050505050565b6000614061826128f9565b91507fffffffffffffffffffffffffffffffffffffffffffffffffffffffffffffffff8203614093576140926134a8565b5b600182019050919050565b7f4d696c6573746f6e6520616d6f756e7473206578636565642074617267657400600082015250565b60006140d4601f83612b1a565b91506140df8261409e565b602082019050919050565b60006020820190508181036000830152614103816140c7565b9050919050565b600060408201905061411f6000830185612903565b61412c6020830184612903565b9392505050565b7f4f6e6c79206f776e65722063616e207375626d69742070726f6f660000000000600082015250565b6000614169601b83612b1a565b915061417482614133565b602082019050919050565b600060208201905081810360008301526141988161415c565b9050919050565b7f50726f6f6620616c7265616479207375626d6974746564000000000000000000600082015250565b60006141d5601783612b1a565b91506141e08261419f565b602082019050919050565b60006020820190508181036000830152614204816141c8565b9050919050565b7f5061792070726576696f7573206d696c6573746f6e6573206669727374000000600082015250565b6000614241601d83612b1a565b915061424c8261420b565b602082019050919050565b6000602082019050818103600083015261427081614234565b9050919050565b7f50726f6f6620686173682063616e6e6f7420626520656d707479000000000000600082015250565b60006142ad601a83612b1a565b91506142b882614277565b602082019050919050565b600060208201905081810360008301526142dc816142a0565b9050919050565b600060208201905081810360008301526142fd8184612b66565b905092915050565b7f5265656e7472616e637900000000000000000000000000000000000000000000600082015250565b600061433b600a83612b1a565b915061434682614305565b602082019050919050565b6000602082019050818103600083015261436a8161432e565b9050919050565b7f546f6f206561726c790000000000000000000000000000000000000000000000600082015250565b60006143a7600983612b1a565b91506143b282614371565b602082019050919050565b600060208201905081810360008301526143d68161439a565b9050919050565b7f526566756e6420636f6e646974696f6e73206e6f74206d657400000000000000600082015250565b6000614413601983612b1a565b915061441e826143dd565b602082019050919050565b6000602082019050818103600083015261444281614406565b9050919050565b7f4e6f20636f6e747269627574696f6e20666f756e640000000000000000000000600082015250565b600061447f601583612b1a565b915061448a82614449565b602082019050919050565b600060208201905081810360008301526144ae81614472565b9050919050565b600081905092915050565b50565b60006144d06000836144b5565b91506144db826144c0565b600082019050919050565b60006144f1826144c3565b9150819050919050565b7f4661696c656420746f2073656e6420726566756e640000000000000000000000600082015250565b6000614531601583612b1a565b915061453c826144fb565b602082019050919050565b6000602082019050818103600083015261456081614524565b9050919050565b7f4f6e6c792063616d706169676e206f776e65722063616e207769746864726177600082015250565b600061459d602083612b1a565b91506145a882614567565b602082019050919050565b600060208201905081810360008301526145cc81614590565b9050919050565b7f4d696c6573746f6e65206e6f7420617070726f76656400000000000000000000600082015250565b6000614609601683612b1a565b9150614614826145d3565b602082019050919050565b60006020820190508181036000830152614638816145fc565b9050919050565b7f4d696c6573746f6e6520616c726561647920736574746c656400000000000000600082015250565b6000614675601983612b1a565b91506146808261463f565b602082019050919050565b600060208201905081810360008301526146a481614668565b9050919050565b7f496e73756666696369656e742062616c616e6365000000000000000000000000600082015250565b60006146e1601483612b1a565b91506146ec826146ab565b602082019050919050565b60006020820190508181036000830152614710816146d4565b9050919050565b7f4661696c656420746f2073656e64204574686572000000000000000000000000600082015250565b600061474d601483612b1a565b915061475882614717565b602082019050919050565b6000602082019050818103600083015261477c81614740565b9050919050565b600061478e826128f9565b9150614799836128f9565b92508282039050818111156147b1576147b06134a8565b5b9291505056fea26469706673582212206c94109b9a10e960658bc3956c4a405530b4b2541fa82e5e51e377c4f7692ad064736f6c63430008120033",
  "linkReferences": {},
  "deployedLinkReferences": {}
}